{
	"contracts/mletr.sol": {
		"MLETR": {
			"abi": [
				{
					"inputs": [],
					"stateMutability": "nonpayable",
					"type": "constructor"
				},
				{
					"anonymous": false,
					"inputs": [
						{
							"indexed": false,
							"internalType": "uint256",
							"name": "documentId",
							"type": "uint256"
						},
						{
							"indexed": false,
							"internalType": "address",
							"name": "from",
							"type": "address"
						},
						{
							"indexed": false,
							"internalType": "address",
							"name": "to",
							"type": "address"
						}
					],
					"name": "DocumentTransferred",
					"type": "event"
				},
				{
					"anonymous": false,
					"inputs": [
						{
							"indexed": false,
							"internalType": "uint256",
							"name": "documentId",
							"type": "uint256"
						},
						{
							"indexed": false,
							"internalType": "address",
							"name": "owner",
							"type": "address"
						},
						{
							"indexed": false,
							"internalType": "string",
							"name": "hash",
							"type": "string"
						}
					],
					"name": "DocumentUploaded",
					"type": "event"
				},
				{
					"anonymous": false,
					"inputs": [
						{
							"indexed": false,
							"internalType": "uint256",
							"name": "documentId",
							"type": "uint256"
						},
						{
							"indexed": false,
							"internalType": "address",
							"name": "verifier",
							"type": "address"
						}
					],
					"name": "DocumentVerified",
					"type": "event"
				},
				{
					"inputs": [],
					"name": "documentCounter",
					"outputs": [
						{
							"internalType": "uint256",
							"name": "",
							"type": "uint256"
						}
					],
					"stateMutability": "view",
					"type": "function"
				},
				{
					"inputs": [
						{
							"internalType": "uint256",
							"name": "",
							"type": "uint256"
						}
					],
					"name": "documents",
					"outputs": [
						{
							"internalType": "address",
							"name": "owner",
							"type": "address"
						},
						{
							"internalType": "string",
							"name": "hash",
							"type": "string"
						},
						{
							"internalType": "bool",
							"name": "verified",
							"type": "bool"
						}
					],
					"stateMutability": "view",
					"type": "function"
				},
				{
					"inputs": [
						{
							"internalType": "uint256",
							"name": "docID",
							"type": "uint256"
						},
						{
							"internalType": "address",
							"name": "newOwner",
							"type": "address"
						}
					],
					"name": "transferDoc",
					"outputs": [],
					"stateMutability": "nonpayable",
					"type": "function"
				},
				{
					"inputs": [
						{
							"internalType": "string",
							"name": "hashed",
							"type": "string"
						}
					],
					"name": "uploadDocument",
					"outputs": [],
					"stateMutability": "nonpayable",
					"type": "function"
				},
				{
					"inputs": [
						{
							"internalType": "uint256",
							"name": "docID",
							"type": "uint256"
						}
					],
					"name": "verifyDocument",
					"outputs": [],
					"stateMutability": "nonpayable",
					"type": "function"
				}
			],
			"devdoc": {
				"kind": "dev",
				"methods": {},
				"version": 1
			},
			"evm": {
				"assembly": "    /* \"contracts/mletr.sol\":26:1287  contract MLETR{... */\n  mstore(0x40, 0x80)\n    /* \"contracts/mletr.sol\":450:499  constructor(){... */\n  callvalue\n  dup1\n  iszero\n  tag_1\n  jumpi\n  revert(0x00, 0x00)\ntag_1:\n  pop\n    /* \"contracts/mletr.sol\":491:492  0 */\n  0x00\n    /* \"contracts/mletr.sol\":473:488  documentCounter */\n  0x01\n    /* \"contracts/mletr.sol\":473:492  documentCounter = 0 */\n  dup2\n  swap1\n  sstore\n  pop\n    /* \"contracts/mletr.sol\":26:1287  contract MLETR{... */\n  dataSize(sub_0)\n  dup1\n  dataOffset(sub_0)\n  0x00\n  codecopy\n  0x00\n  return\nstop\n\nsub_0: assembly {\n        /* \"contracts/mletr.sol\":26:1287  contract MLETR{... */\n      mstore(0x40, 0x80)\n      callvalue\n      dup1\n      iszero\n      tag_1\n      jumpi\n      revert(0x00, 0x00)\n    tag_1:\n      pop\n      jumpi(tag_2, lt(calldatasize, 0x04))\n      shr(0xe0, calldataload(0x00))\n      dup1\n      0x58f313bb\n      eq\n      tag_3\n      jumpi\n      dup1\n      0x6dda61d9\n      eq\n      tag_4\n      jumpi\n      dup1\n      0x88eeeaa6\n      eq\n      tag_5\n      jumpi\n      dup1\n      0xb7f5576d\n      eq\n      tag_6\n      jumpi\n      dup1\n      0xc2ed2b05\n      eq\n      tag_7\n      jumpi\n    tag_2:\n      revert(0x00, 0x00)\n        /* \"contracts/mletr.sol\":192:222  uint256 public documentCounter */\n    tag_3:\n      tag_8\n      tag_9\n      jump\t// in\n    tag_8:\n      mload(0x40)\n      tag_10\n      swap2\n      swap1\n      tag_11\n      jump\t// in\n    tag_10:\n      mload(0x40)\n      dup1\n      swap2\n      sub\n      swap1\n      return\n        /* \"contracts/mletr.sol\":812:1030  function verifyDocument(uint256 docID) public{... */\n    tag_4:\n      tag_12\n      0x04\n      dup1\n      calldatasize\n      sub\n      dup2\n      add\n      swap1\n      tag_13\n      swap2\n      swap1\n      tag_14\n      jump\t// in\n    tag_13:\n      tag_15\n      jump\t// in\n    tag_12:\n      stop\n        /* \"contracts/mletr.sol\":1036:1280  function transferDoc(uint docID, address newOwner) public{... */\n    tag_5:\n      tag_16\n      0x04\n      dup1\n      calldatasize\n      sub\n      dup2\n      add\n      swap1\n      tag_17\n      swap2\n      swap1\n      tag_18\n      jump\t// in\n    tag_17:\n      tag_19\n      jump\t// in\n    tag_16:\n      stop\n        /* \"contracts/mletr.sol\":505:806  function uploadDocument(string memory hashed) public{... */\n    tag_6:\n      tag_20\n      0x04\n      dup1\n      calldatasize\n      sub\n      dup2\n      add\n      swap1\n      tag_21\n      swap2\n      swap1\n      tag_22\n      jump\t// in\n    tag_21:\n      tag_23\n      jump\t// in\n    tag_20:\n      stop\n        /* \"contracts/mletr.sol\":141:186  mapping(uint256 => Document) public documents */\n    tag_7:\n      tag_24\n      0x04\n      dup1\n      calldatasize\n      sub\n      dup2\n      add\n      swap1\n      tag_25\n      swap2\n      swap1\n      tag_14\n      jump\t// in\n    tag_25:\n      tag_26\n      jump\t// in\n    tag_24:\n      mload(0x40)\n      tag_27\n      swap4\n      swap3\n      swap2\n      swap1\n      tag_28\n      jump\t// in\n    tag_27:\n      mload(0x40)\n      dup1\n      swap2\n      sub\n      swap1\n      return\n        /* \"contracts/mletr.sol\":192:222  uint256 public documentCounter */\n    tag_9:\n      sload(0x01)\n      dup2\n      jump\t// out\n        /* \"contracts/mletr.sol\":812:1030  function verifyDocument(uint256 docID) public{... */\n    tag_15:\n        /* \"contracts/mletr.sol\":901:911  msg.sender */\n      caller\n        /* \"contracts/mletr.sol\":875:911  documents[docID].owner == msg.sender */\n      0xffffffffffffffffffffffffffffffffffffffff\n      and\n        /* \"contracts/mletr.sol\":875:884  documents */\n      0x00\n        /* \"contracts/mletr.sol\":875:891  documents[docID] */\n      0x00\n        /* \"contracts/mletr.sol\":885:890  docID */\n      dup4\n        /* \"contracts/mletr.sol\":875:891  documents[docID] */\n      dup2\n      mstore\n      0x20\n      add\n      swap1\n      dup2\n      mstore\n      0x20\n      add\n      0x00\n      keccak256\n        /* \"contracts/mletr.sol\":875:897  documents[docID].owner */\n      0x00\n      add\n      0x00\n      swap1\n      sload\n      swap1\n      0x0100\n      exp\n      swap1\n      div\n      0xffffffffffffffffffffffffffffffffffffffff\n      and\n        /* \"contracts/mletr.sol\":875:911  documents[docID].owner == msg.sender */\n      0xffffffffffffffffffffffffffffffffffffffff\n      and\n      eq\n        /* \"contracts/mletr.sol\":867:930  require(documents[docID].owner == msg.sender, \"Not authorized\") */\n      tag_30\n      jumpi\n      mload(0x40)\n      0x08c379a000000000000000000000000000000000000000000000000000000000\n      dup2\n      mstore\n      0x04\n      add\n      tag_31\n      swap1\n      tag_32\n      jump\t// in\n    tag_31:\n      mload(0x40)\n      dup1\n      swap2\n      sub\n      swap1\n      revert\n    tag_30:\n        /* \"contracts/mletr.sol\":968:972  true */\n      0x01\n        /* \"contracts/mletr.sol\":940:949  documents */\n      0x00\n        /* \"contracts/mletr.sol\":940:956  documents[docID] */\n      0x00\n        /* \"contracts/mletr.sol\":950:955  docID */\n      dup4\n        /* \"contracts/mletr.sol\":940:956  documents[docID] */\n      dup2\n      mstore\n      0x20\n      add\n      swap1\n      dup2\n      mstore\n      0x20\n      add\n      0x00\n      keccak256\n        /* \"contracts/mletr.sol\":940:965  documents[docID].verified */\n      0x02\n      add\n      0x00\n        /* \"contracts/mletr.sol\":940:972  documents[docID].verified = true */\n      0x0100\n      exp\n      dup2\n      sload\n      dup2\n      0xff\n      mul\n      not\n      and\n      swap1\n      dup4\n      iszero\n      iszero\n      mul\n      or\n      swap1\n      sstore\n      pop\n        /* \"contracts/mletr.sol\":988:1023  DocumentVerified(docID, msg.sender) */\n      0x6966a20715f4337f34fd08d8aa190a3c343cf21ad67677b447632194d8d60308\n        /* \"contracts/mletr.sol\":1005:1010  docID */\n      dup2\n        /* \"contracts/mletr.sol\":1012:1022  msg.sender */\n      caller\n        /* \"contracts/mletr.sol\":988:1023  DocumentVerified(docID, msg.sender) */\n      mload(0x40)\n      tag_33\n      swap3\n      swap2\n      swap1\n      tag_34\n      jump\t// in\n    tag_33:\n      mload(0x40)\n      dup1\n      swap2\n      sub\n      swap1\n      log1\n        /* \"contracts/mletr.sol\":812:1030  function verifyDocument(uint256 docID) public{... */\n      pop\n      jump\t// out\n        /* \"contracts/mletr.sol\":1036:1280  function transferDoc(uint docID, address newOwner) public{... */\n    tag_19:\n        /* \"contracts/mletr.sol\":1137:1147  msg.sender */\n      caller\n        /* \"contracts/mletr.sol\":1111:1147  documents[docID].owner == msg.sender */\n      0xffffffffffffffffffffffffffffffffffffffff\n      and\n        /* \"contracts/mletr.sol\":1111:1120  documents */\n      0x00\n        /* \"contracts/mletr.sol\":1111:1127  documents[docID] */\n      0x00\n        /* \"contracts/mletr.sol\":1121:1126  docID */\n      dup5\n        /* \"contracts/mletr.sol\":1111:1127  documents[docID] */\n      dup2\n      mstore\n      0x20\n      add\n      swap1\n      dup2\n      mstore\n      0x20\n      add\n      0x00\n      keccak256\n        /* \"contracts/mletr.sol\":1111:1133  documents[docID].owner */\n      0x00\n      add\n      0x00\n      swap1\n      sload\n      swap1\n      0x0100\n      exp\n      swap1\n      div\n      0xffffffffffffffffffffffffffffffffffffffff\n      and\n        /* \"contracts/mletr.sol\":1111:1147  documents[docID].owner == msg.sender */\n      0xffffffffffffffffffffffffffffffffffffffff\n      and\n      eq\n        /* \"contracts/mletr.sol\":1103:1165  require(documents[docID].owner == msg.sender, \"Not the owner\") */\n      tag_36\n      jumpi\n      mload(0x40)\n      0x08c379a000000000000000000000000000000000000000000000000000000000\n      dup2\n      mstore\n      0x04\n      add\n      tag_37\n      swap1\n      tag_38\n      jump\t// in\n    tag_37:\n      mload(0x40)\n      dup1\n      swap2\n      sub\n      swap1\n      revert\n    tag_36:\n        /* \"contracts/mletr.sol\":1200:1208  newOwner */\n      dup1\n        /* \"contracts/mletr.sol\":1175:1184  documents */\n      0x00\n        /* \"contracts/mletr.sol\":1175:1191  documents[docID] */\n      0x00\n        /* \"contracts/mletr.sol\":1185:1190  docID */\n      dup5\n        /* \"contracts/mletr.sol\":1175:1191  documents[docID] */\n      dup2\n      mstore\n      0x20\n      add\n      swap1\n      dup2\n      mstore\n      0x20\n      add\n      0x00\n      keccak256\n        /* \"contracts/mletr.sol\":1175:1197  documents[docID].owner */\n      0x00\n      add\n      0x00\n        /* \"contracts/mletr.sol\":1175:1208  documents[docID].owner = newOwner */\n      0x0100\n      exp\n      dup2\n      sload\n      dup2\n      0xffffffffffffffffffffffffffffffffffffffff\n      mul\n      not\n      and\n      swap1\n      dup4\n      0xffffffffffffffffffffffffffffffffffffffff\n      and\n      mul\n      or\n      swap1\n      sstore\n      pop\n        /* \"contracts/mletr.sol\":1224:1272  DocumentTransferred(docID, msg.sender, newOwner) */\n      0xafd9f2e6dfdde17d593b303bbbb47053d98a7ce79b03ca053d58ae499c7f55ae\n        /* \"contracts/mletr.sol\":1244:1249  docID */\n      dup3\n        /* \"contracts/mletr.sol\":1251:1261  msg.sender */\n      caller\n        /* \"contracts/mletr.sol\":1263:1271  newOwner */\n      dup4\n        /* \"contracts/mletr.sol\":1224:1272  DocumentTransferred(docID, msg.sender, newOwner) */\n      mload(0x40)\n      tag_39\n      swap4\n      swap3\n      swap2\n      swap1\n      tag_40\n      jump\t// in\n    tag_39:\n      mload(0x40)\n      dup1\n      swap2\n      sub\n      swap1\n      log1\n        /* \"contracts/mletr.sol\":1036:1280  function transferDoc(uint docID, address newOwner) public{... */\n      pop\n      pop\n      jump\t// out\n        /* \"contracts/mletr.sol\":505:806  function uploadDocument(string memory hashed) public{... */\n    tag_23:\n        /* \"contracts/mletr.sol\":567:582  documentCounter */\n      0x01\n      0x00\n        /* \"contracts/mletr.sol\":567:584  documentCounter++ */\n      dup2\n      sload\n      dup1\n      swap3\n      swap2\n      swap1\n      tag_42\n      swap1\n      tag_43\n      jump\t// in\n    tag_42:\n      swap2\n      swap1\n      pop\n      sstore\n      pop\n        /* \"contracts/mletr.sol\":624:730  Document({... */\n      mload(0x40)\n      dup1\n      0x60\n      add\n      0x40\n      mstore\n      dup1\n        /* \"contracts/mletr.sol\":654:664  msg.sender */\n      caller\n        /* \"contracts/mletr.sol\":624:730  Document({... */\n      0xffffffffffffffffffffffffffffffffffffffff\n      and\n      dup2\n      mstore\n      0x20\n      add\n        /* \"contracts/mletr.sol\":684:690  hashed */\n      dup3\n        /* \"contracts/mletr.sol\":624:730  Document({... */\n      dup2\n      mstore\n      0x20\n      add\n        /* \"contracts/mletr.sol\":714:719  false */\n      0x00\n        /* \"contracts/mletr.sol\":624:730  Document({... */\n      iszero\n      iszero\n      dup2\n      mstore\n      pop\n        /* \"contracts/mletr.sol\":595:604  documents */\n      0x00\n        /* \"contracts/mletr.sol\":595:621  documents[documentCounter] */\n      0x00\n        /* \"contracts/mletr.sol\":605:620  documentCounter */\n      sload(0x01)\n        /* \"contracts/mletr.sol\":595:621  documents[documentCounter] */\n      dup2\n      mstore\n      0x20\n      add\n      swap1\n      dup2\n      mstore\n      0x20\n      add\n      0x00\n      keccak256\n        /* \"contracts/mletr.sol\":595:730  documents[documentCounter] = Document({... */\n      0x00\n      dup3\n      add\n      mload\n      dup2\n      0x00\n      add\n      exp(0x0100, 0x00)\n      dup2\n      sload\n      dup2\n      0xffffffffffffffffffffffffffffffffffffffff\n      mul\n      not\n      and\n      swap1\n      dup4\n      0xffffffffffffffffffffffffffffffffffffffff\n      and\n      mul\n      or\n      swap1\n      sstore\n      pop\n      0x20\n      dup3\n      add\n      mload\n      dup2\n      0x01\n      add\n      swap1\n      dup2\n      tag_44\n      swap2\n      swap1\n      tag_45\n      jump\t// in\n    tag_44:\n      pop\n      0x40\n      dup3\n      add\n      mload\n      dup2\n      0x02\n      add\n      exp(0x0100, 0x00)\n      dup2\n      sload\n      dup2\n      0xff\n      mul\n      not\n      and\n      swap1\n      dup4\n      iszero\n      iszero\n      mul\n      or\n      swap1\n      sstore\n      pop\n      swap1\n      pop\n      pop\n        /* \"contracts/mletr.sol\":746:799  DocumentUploaded(documentCounter, msg.sender, hashed) */\n      0xffaa94bbdb06ce69a1cd16a5a05500d4475f2b769b7da620be594121265017f9\n        /* \"contracts/mletr.sol\":763:778  documentCounter */\n      sload(0x01)\n        /* \"contracts/mletr.sol\":780:790  msg.sender */\n      caller\n        /* \"contracts/mletr.sol\":792:798  hashed */\n      dup4\n        /* \"contracts/mletr.sol\":746:799  DocumentUploaded(documentCounter, msg.sender, hashed) */\n      mload(0x40)\n      tag_46\n      swap4\n      swap3\n      swap2\n      swap1\n      tag_47\n      jump\t// in\n    tag_46:\n      mload(0x40)\n      dup1\n      swap2\n      sub\n      swap1\n      log1\n        /* \"contracts/mletr.sol\":505:806  function uploadDocument(string memory hashed) public{... */\n      pop\n      jump\t// out\n        /* \"contracts/mletr.sol\":141:186  mapping(uint256 => Document) public documents */\n    tag_26:\n      mstore(0x20, 0x00)\n      dup1\n      0x00\n      mstore\n      keccak256(0x00, 0x40)\n      0x00\n      swap2\n      pop\n      swap1\n      pop\n      dup1\n      0x00\n      add\n      0x00\n      swap1\n      sload\n      swap1\n      0x0100\n      exp\n      swap1\n      div\n      0xffffffffffffffffffffffffffffffffffffffff\n      and\n      swap1\n      dup1\n      0x01\n      add\n      dup1\n      sload\n      tag_48\n      swap1\n      tag_49\n      jump\t// in\n    tag_48:\n      dup1\n      0x1f\n      add\n      0x20\n      dup1\n      swap2\n      div\n      mul\n      0x20\n      add\n      mload(0x40)\n      swap1\n      dup2\n      add\n      0x40\n      mstore\n      dup1\n      swap3\n      swap2\n      swap1\n      dup2\n      dup2\n      mstore\n      0x20\n      add\n      dup3\n      dup1\n      sload\n      tag_50\n      swap1\n      tag_49\n      jump\t// in\n    tag_50:\n      dup1\n      iszero\n      tag_51\n      jumpi\n      dup1\n      0x1f\n      lt\n      tag_52\n      jumpi\n      0x0100\n      dup1\n      dup4\n      sload\n      div\n      mul\n      dup4\n      mstore\n      swap2\n      0x20\n      add\n      swap2\n      jump(tag_51)\n    tag_52:\n      dup3\n      add\n      swap2\n      swap1\n      0x00\n      mstore\n      keccak256(0x00, 0x20)\n      swap1\n    tag_53:\n      dup2\n      sload\n      dup2\n      mstore\n      swap1\n      0x01\n      add\n      swap1\n      0x20\n      add\n      dup1\n      dup4\n      gt\n      tag_53\n      jumpi\n      dup3\n      swap1\n      sub\n      0x1f\n      and\n      dup3\n      add\n      swap2\n    tag_51:\n      pop\n      pop\n      pop\n      pop\n      pop\n      swap1\n      dup1\n      0x02\n      add\n      0x00\n      swap1\n      sload\n      swap1\n      0x0100\n      exp\n      swap1\n      div\n      0xff\n      and\n      swap1\n      pop\n      dup4\n      jump\t// out\n        /* \"#utility.yul\":7:84   */\n    tag_54:\n        /* \"#utility.yul\":44:51   */\n      0x00\n        /* \"#utility.yul\":73:78   */\n      dup2\n        /* \"#utility.yul\":62:78   */\n      swap1\n      pop\n        /* \"#utility.yul\":7:84   */\n      swap2\n      swap1\n      pop\n      jump\t// out\n        /* \"#utility.yul\":90:208   */\n    tag_55:\n        /* \"#utility.yul\":177:201   */\n      tag_106\n        /* \"#utility.yul\":195:200   */\n      dup2\n        /* \"#utility.yul\":177:201   */\n      tag_54\n      jump\t// in\n    tag_106:\n        /* \"#utility.yul\":172:175   */\n      dup3\n        /* \"#utility.yul\":165:202   */\n      mstore\n        /* \"#utility.yul\":90:208   */\n      pop\n      pop\n      jump\t// out\n        /* \"#utility.yul\":214:436   */\n    tag_11:\n        /* \"#utility.yul\":307:311   */\n      0x00\n        /* \"#utility.yul\":345:347   */\n      0x20\n        /* \"#utility.yul\":334:343   */\n      dup3\n        /* \"#utility.yul\":330:348   */\n      add\n        /* \"#utility.yul\":322:348   */\n      swap1\n      pop\n        /* \"#utility.yul\":358:429   */\n      tag_108\n        /* \"#utility.yul\":426:427   */\n      0x00\n        /* \"#utility.yul\":415:424   */\n      dup4\n        /* \"#utility.yul\":411:428   */\n      add\n        /* \"#utility.yul\":402:408   */\n      dup5\n        /* \"#utility.yul\":358:429   */\n      tag_55\n      jump\t// in\n    tag_108:\n        /* \"#utility.yul\":214:436   */\n      swap3\n      swap2\n      pop\n      pop\n      jump\t// out\n        /* \"#utility.yul\":442:517   */\n    tag_56:\n        /* \"#utility.yul\":475:481   */\n      0x00\n        /* \"#utility.yul\":508:510   */\n      0x40\n        /* \"#utility.yul\":502:511   */\n      mload\n        /* \"#utility.yul\":492:511   */\n      swap1\n      pop\n        /* \"#utility.yul\":442:517   */\n      swap1\n      jump\t// out\n        /* \"#utility.yul\":523:640   */\n    tag_57:\n        /* \"#utility.yul\":632:633   */\n      0x00\n        /* \"#utility.yul\":629:630   */\n      0x00\n        /* \"#utility.yul\":622:634   */\n      revert\n        /* \"#utility.yul\":646:763   */\n    tag_58:\n        /* \"#utility.yul\":755:756   */\n      0x00\n        /* \"#utility.yul\":752:753   */\n      0x00\n        /* \"#utility.yul\":745:757   */\n      revert\n        /* \"#utility.yul\":769:891   */\n    tag_59:\n        /* \"#utility.yul\":842:866   */\n      tag_113\n        /* \"#utility.yul\":860:865   */\n      dup2\n        /* \"#utility.yul\":842:866   */\n      tag_54\n      jump\t// in\n    tag_113:\n        /* \"#utility.yul\":835:840   */\n      dup2\n        /* \"#utility.yul\":832:867   */\n      eq\n        /* \"#utility.yul\":822:885   */\n      tag_114\n      jumpi\n        /* \"#utility.yul\":881:882   */\n      0x00\n        /* \"#utility.yul\":878:879   */\n      0x00\n        /* \"#utility.yul\":871:883   */\n      revert\n        /* \"#utility.yul\":822:885   */\n    tag_114:\n        /* \"#utility.yul\":769:891   */\n      pop\n      jump\t// out\n        /* \"#utility.yul\":897:1036   */\n    tag_60:\n        /* \"#utility.yul\":943:948   */\n      0x00\n        /* \"#utility.yul\":981:987   */\n      dup2\n        /* \"#utility.yul\":968:988   */\n      calldataload\n        /* \"#utility.yul\":959:988   */\n      swap1\n      pop\n        /* \"#utility.yul\":997:1030   */\n      tag_116\n        /* \"#utility.yul\":1024:1029   */\n      dup2\n        /* \"#utility.yul\":997:1030   */\n      tag_59\n      jump\t// in\n    tag_116:\n        /* \"#utility.yul\":897:1036   */\n      swap3\n      swap2\n      pop\n      pop\n      jump\t// out\n        /* \"#utility.yul\":1042:1371   */\n    tag_14:\n        /* \"#utility.yul\":1101:1107   */\n      0x00\n        /* \"#utility.yul\":1150:1152   */\n      0x20\n        /* \"#utility.yul\":1138:1147   */\n      dup3\n        /* \"#utility.yul\":1129:1136   */\n      dup5\n        /* \"#utility.yul\":1125:1148   */\n      sub\n        /* \"#utility.yul\":1121:1153   */\n      slt\n        /* \"#utility.yul\":1118:1237   */\n      iszero\n      tag_118\n      jumpi\n        /* \"#utility.yul\":1156:1235   */\n      tag_119\n      tag_57\n      jump\t// in\n    tag_119:\n        /* \"#utility.yul\":1118:1237   */\n    tag_118:\n        /* \"#utility.yul\":1276:1277   */\n      0x00\n        /* \"#utility.yul\":1301:1354   */\n      tag_120\n        /* \"#utility.yul\":1346:1353   */\n      dup5\n        /* \"#utility.yul\":1337:1343   */\n      dup3\n        /* \"#utility.yul\":1326:1335   */\n      dup6\n        /* \"#utility.yul\":1322:1344   */\n      add\n        /* \"#utility.yul\":1301:1354   */\n      tag_60\n      jump\t// in\n    tag_120:\n        /* \"#utility.yul\":1291:1354   */\n      swap2\n      pop\n        /* \"#utility.yul\":1247:1364   */\n      pop\n        /* \"#utility.yul\":1042:1371   */\n      swap3\n      swap2\n      pop\n      pop\n      jump\t// out\n        /* \"#utility.yul\":1377:1503   */\n    tag_61:\n        /* \"#utility.yul\":1414:1421   */\n      0x00\n        /* \"#utility.yul\":1454:1496   */\n      0xffffffffffffffffffffffffffffffffffffffff\n        /* \"#utility.yul\":1447:1452   */\n      dup3\n        /* \"#utility.yul\":1443:1497   */\n      and\n        /* \"#utility.yul\":1432:1497   */\n      swap1\n      pop\n        /* \"#utility.yul\":1377:1503   */\n      swap2\n      swap1\n      pop\n      jump\t// out\n        /* \"#utility.yul\":1509:1605   */\n    tag_62:\n        /* \"#utility.yul\":1546:1553   */\n      0x00\n        /* \"#utility.yul\":1575:1599   */\n      tag_123\n        /* \"#utility.yul\":1593:1598   */\n      dup3\n        /* \"#utility.yul\":1575:1599   */\n      tag_61\n      jump\t// in\n    tag_123:\n        /* \"#utility.yul\":1564:1599   */\n      swap1\n      pop\n        /* \"#utility.yul\":1509:1605   */\n      swap2\n      swap1\n      pop\n      jump\t// out\n        /* \"#utility.yul\":1611:1733   */\n    tag_63:\n        /* \"#utility.yul\":1684:1708   */\n      tag_125\n        /* \"#utility.yul\":1702:1707   */\n      dup2\n        /* \"#utility.yul\":1684:1708   */\n      tag_62\n      jump\t// in\n    tag_125:\n        /* \"#utility.yul\":1677:1682   */\n      dup2\n        /* \"#utility.yul\":1674:1709   */\n      eq\n        /* \"#utility.yul\":1664:1727   */\n      tag_126\n      jumpi\n        /* \"#utility.yul\":1723:1724   */\n      0x00\n        /* \"#utility.yul\":1720:1721   */\n      0x00\n        /* \"#utility.yul\":1713:1725   */\n      revert\n        /* \"#utility.yul\":1664:1727   */\n    tag_126:\n        /* \"#utility.yul\":1611:1733   */\n      pop\n      jump\t// out\n        /* \"#utility.yul\":1739:1878   */\n    tag_64:\n        /* \"#utility.yul\":1785:1790   */\n      0x00\n        /* \"#utility.yul\":1823:1829   */\n      dup2\n        /* \"#utility.yul\":1810:1830   */\n      calldataload\n        /* \"#utility.yul\":1801:1830   */\n      swap1\n      pop\n        /* \"#utility.yul\":1839:1872   */\n      tag_128\n        /* \"#utility.yul\":1866:1871   */\n      dup2\n        /* \"#utility.yul\":1839:1872   */\n      tag_63\n      jump\t// in\n    tag_128:\n        /* \"#utility.yul\":1739:1878   */\n      swap3\n      swap2\n      pop\n      pop\n      jump\t// out\n        /* \"#utility.yul\":1884:2358   */\n    tag_18:\n        /* \"#utility.yul\":1952:1958   */\n      0x00\n        /* \"#utility.yul\":1960:1966   */\n      0x00\n        /* \"#utility.yul\":2009:2011   */\n      0x40\n        /* \"#utility.yul\":1997:2006   */\n      dup4\n        /* \"#utility.yul\":1988:1995   */\n      dup6\n        /* \"#utility.yul\":1984:2007   */\n      sub\n        /* \"#utility.yul\":1980:2012   */\n      slt\n        /* \"#utility.yul\":1977:2096   */\n      iszero\n      tag_130\n      jumpi\n        /* \"#utility.yul\":2015:2094   */\n      tag_131\n      tag_57\n      jump\t// in\n    tag_131:\n        /* \"#utility.yul\":1977:2096   */\n    tag_130:\n        /* \"#utility.yul\":2135:2136   */\n      0x00\n        /* \"#utility.yul\":2160:2213   */\n      tag_132\n        /* \"#utility.yul\":2205:2212   */\n      dup6\n        /* \"#utility.yul\":2196:2202   */\n      dup3\n        /* \"#utility.yul\":2185:2194   */\n      dup7\n        /* \"#utility.yul\":2181:2203   */\n      add\n        /* \"#utility.yul\":2160:2213   */\n      tag_60\n      jump\t// in\n    tag_132:\n        /* \"#utility.yul\":2150:2213   */\n      swap3\n      pop\n        /* \"#utility.yul\":2106:2223   */\n      pop\n        /* \"#utility.yul\":2262:2264   */\n      0x20\n        /* \"#utility.yul\":2288:2341   */\n      tag_133\n        /* \"#utility.yul\":2333:2340   */\n      dup6\n        /* \"#utility.yul\":2324:2330   */\n      dup3\n        /* \"#utility.yul\":2313:2322   */\n      dup7\n        /* \"#utility.yul\":2309:2331   */\n      add\n        /* \"#utility.yul\":2288:2341   */\n      tag_64\n      jump\t// in\n    tag_133:\n        /* \"#utility.yul\":2278:2341   */\n      swap2\n      pop\n        /* \"#utility.yul\":2233:2351   */\n      pop\n        /* \"#utility.yul\":1884:2358   */\n      swap3\n      pop\n      swap3\n      swap1\n      pop\n      jump\t// out\n        /* \"#utility.yul\":2364:2481   */\n    tag_65:\n        /* \"#utility.yul\":2473:2474   */\n      0x00\n        /* \"#utility.yul\":2470:2471   */\n      0x00\n        /* \"#utility.yul\":2463:2475   */\n      revert\n        /* \"#utility.yul\":2487:2604   */\n    tag_66:\n        /* \"#utility.yul\":2596:2597   */\n      0x00\n        /* \"#utility.yul\":2593:2594   */\n      0x00\n        /* \"#utility.yul\":2586:2598   */\n      revert\n        /* \"#utility.yul\":2610:2712   */\n    tag_67:\n        /* \"#utility.yul\":2651:2657   */\n      0x00\n        /* \"#utility.yul\":2702:2704   */\n      0x1f\n        /* \"#utility.yul\":2698:2705   */\n      not\n        /* \"#utility.yul\":2693:2695   */\n      0x1f\n        /* \"#utility.yul\":2686:2691   */\n      dup4\n        /* \"#utility.yul\":2682:2696   */\n      add\n        /* \"#utility.yul\":2678:2706   */\n      and\n        /* \"#utility.yul\":2668:2706   */\n      swap1\n      pop\n        /* \"#utility.yul\":2610:2712   */\n      swap2\n      swap1\n      pop\n      jump\t// out\n        /* \"#utility.yul\":2718:2898   */\n    tag_68:\n        /* \"#utility.yul\":2766:2843   */\n      0x4e487b7100000000000000000000000000000000000000000000000000000000\n        /* \"#utility.yul\":2763:2764   */\n      0x00\n        /* \"#utility.yul\":2756:2844   */\n      mstore\n        /* \"#utility.yul\":2863:2867   */\n      0x41\n        /* \"#utility.yul\":2860:2861   */\n      0x04\n        /* \"#utility.yul\":2853:2868   */\n      mstore\n        /* \"#utility.yul\":2887:2891   */\n      0x24\n        /* \"#utility.yul\":2884:2885   */\n      0x00\n        /* \"#utility.yul\":2877:2892   */\n      revert\n        /* \"#utility.yul\":2904:3185   */\n    tag_69:\n        /* \"#utility.yul\":2987:3014   */\n      tag_139\n        /* \"#utility.yul\":3009:3013   */\n      dup3\n        /* \"#utility.yul\":2987:3014   */\n      tag_67\n      jump\t// in\n    tag_139:\n        /* \"#utility.yul\":2979:2985   */\n      dup2\n        /* \"#utility.yul\":2975:3015   */\n      add\n        /* \"#utility.yul\":3117:3123   */\n      dup2\n        /* \"#utility.yul\":3105:3115   */\n      dup2\n        /* \"#utility.yul\":3102:3124   */\n      lt\n        /* \"#utility.yul\":3081:3099   */\n      0xffffffffffffffff\n        /* \"#utility.yul\":3069:3079   */\n      dup3\n        /* \"#utility.yul\":3066:3100   */\n      gt\n        /* \"#utility.yul\":3063:3125   */\n      or\n        /* \"#utility.yul\":3060:3148   */\n      iszero\n      tag_140\n      jumpi\n        /* \"#utility.yul\":3128:3146   */\n      tag_141\n      tag_68\n      jump\t// in\n    tag_141:\n        /* \"#utility.yul\":3060:3148   */\n    tag_140:\n        /* \"#utility.yul\":3168:3178   */\n      dup1\n        /* \"#utility.yul\":3164:3166   */\n      0x40\n        /* \"#utility.yul\":3157:3179   */\n      mstore\n        /* \"#utility.yul\":2947:3185   */\n      pop\n        /* \"#utility.yul\":2904:3185   */\n      pop\n      pop\n      jump\t// out\n        /* \"#utility.yul\":3191:3320   */\n    tag_70:\n        /* \"#utility.yul\":3225:3231   */\n      0x00\n        /* \"#utility.yul\":3252:3272   */\n      tag_143\n      tag_56\n      jump\t// in\n    tag_143:\n        /* \"#utility.yul\":3242:3272   */\n      swap1\n      pop\n        /* \"#utility.yul\":3281:3314   */\n      tag_144\n        /* \"#utility.yul\":3309:3313   */\n      dup3\n        /* \"#utility.yul\":3301:3307   */\n      dup3\n        /* \"#utility.yul\":3281:3314   */\n      tag_69\n      jump\t// in\n    tag_144:\n        /* \"#utility.yul\":3191:3320   */\n      swap2\n      swap1\n      pop\n      jump\t// out\n        /* \"#utility.yul\":3326:3634   */\n    tag_71:\n        /* \"#utility.yul\":3388:3392   */\n      0x00\n        /* \"#utility.yul\":3478:3496   */\n      0xffffffffffffffff\n        /* \"#utility.yul\":3470:3476   */\n      dup3\n        /* \"#utility.yul\":3467:3497   */\n      gt\n        /* \"#utility.yul\":3464:3520   */\n      iszero\n      tag_146\n      jumpi\n        /* \"#utility.yul\":3500:3518   */\n      tag_147\n      tag_68\n      jump\t// in\n    tag_147:\n        /* \"#utility.yul\":3464:3520   */\n    tag_146:\n        /* \"#utility.yul\":3538:3567   */\n      tag_148\n        /* \"#utility.yul\":3560:3566   */\n      dup3\n        /* \"#utility.yul\":3538:3567   */\n      tag_67\n      jump\t// in\n    tag_148:\n        /* \"#utility.yul\":3530:3567   */\n      swap1\n      pop\n        /* \"#utility.yul\":3622:3626   */\n      0x20\n        /* \"#utility.yul\":3616:3620   */\n      dup2\n        /* \"#utility.yul\":3612:3627   */\n      add\n        /* \"#utility.yul\":3604:3627   */\n      swap1\n      pop\n        /* \"#utility.yul\":3326:3634   */\n      swap2\n      swap1\n      pop\n      jump\t// out\n        /* \"#utility.yul\":3640:3788   */\n    tag_72:\n        /* \"#utility.yul\":3738:3744   */\n      dup3\n        /* \"#utility.yul\":3733:3736   */\n      dup2\n        /* \"#utility.yul\":3728:3731   */\n      dup4\n        /* \"#utility.yul\":3715:3745   */\n      calldatacopy\n        /* \"#utility.yul\":3779:3780   */\n      0x00\n        /* \"#utility.yul\":3770:3776   */\n      dup4\n        /* \"#utility.yul\":3765:3768   */\n      dup4\n        /* \"#utility.yul\":3761:3777   */\n      add\n        /* \"#utility.yul\":3754:3781   */\n      mstore\n        /* \"#utility.yul\":3640:3788   */\n      pop\n      pop\n      pop\n      jump\t// out\n        /* \"#utility.yul\":3794:4219   */\n    tag_73:\n        /* \"#utility.yul\":3872:3877   */\n      0x00\n        /* \"#utility.yul\":3897:3963   */\n      tag_151\n        /* \"#utility.yul\":3913:3962   */\n      tag_152\n        /* \"#utility.yul\":3955:3961   */\n      dup5\n        /* \"#utility.yul\":3913:3962   */\n      tag_71\n      jump\t// in\n    tag_152:\n        /* \"#utility.yul\":3897:3963   */\n      tag_70\n      jump\t// in\n    tag_151:\n        /* \"#utility.yul\":3888:3963   */\n      swap1\n      pop\n        /* \"#utility.yul\":3986:3992   */\n      dup3\n        /* \"#utility.yul\":3979:3984   */\n      dup2\n        /* \"#utility.yul\":3972:3993   */\n      mstore\n        /* \"#utility.yul\":4024:4028   */\n      0x20\n        /* \"#utility.yul\":4017:4022   */\n      dup2\n        /* \"#utility.yul\":4013:4029   */\n      add\n        /* \"#utility.yul\":4062:4065   */\n      dup5\n        /* \"#utility.yul\":4053:4059   */\n      dup5\n        /* \"#utility.yul\":4048:4051   */\n      dup5\n        /* \"#utility.yul\":4044:4060   */\n      add\n        /* \"#utility.yul\":4041:4066   */\n      gt\n        /* \"#utility.yul\":4038:4150   */\n      iszero\n      tag_153\n      jumpi\n        /* \"#utility.yul\":4069:4148   */\n      tag_154\n      tag_66\n      jump\t// in\n    tag_154:\n        /* \"#utility.yul\":4038:4150   */\n    tag_153:\n        /* \"#utility.yul\":4159:4213   */\n      tag_155\n        /* \"#utility.yul\":4206:4212   */\n      dup5\n        /* \"#utility.yul\":4201:4204   */\n      dup3\n        /* \"#utility.yul\":4196:4199   */\n      dup6\n        /* \"#utility.yul\":4159:4213   */\n      tag_72\n      jump\t// in\n    tag_155:\n        /* \"#utility.yul\":3878:4219   */\n      pop\n        /* \"#utility.yul\":3794:4219   */\n      swap4\n      swap3\n      pop\n      pop\n      pop\n      jump\t// out\n        /* \"#utility.yul\":4239:4579   */\n    tag_74:\n        /* \"#utility.yul\":4295:4300   */\n      0x00\n        /* \"#utility.yul\":4344:4347   */\n      dup3\n        /* \"#utility.yul\":4337:4341   */\n      0x1f\n        /* \"#utility.yul\":4329:4335   */\n      dup4\n        /* \"#utility.yul\":4325:4342   */\n      add\n        /* \"#utility.yul\":4321:4348   */\n      slt\n        /* \"#utility.yul\":4311:4433   */\n      tag_157\n      jumpi\n        /* \"#utility.yul\":4352:4431   */\n      tag_158\n      tag_65\n      jump\t// in\n    tag_158:\n        /* \"#utility.yul\":4311:4433   */\n    tag_157:\n        /* \"#utility.yul\":4469:4475   */\n      dup2\n        /* \"#utility.yul\":4456:4476   */\n      calldataload\n        /* \"#utility.yul\":4494:4573   */\n      tag_159\n        /* \"#utility.yul\":4569:4572   */\n      dup5\n        /* \"#utility.yul\":4561:4567   */\n      dup3\n        /* \"#utility.yul\":4554:4558   */\n      0x20\n        /* \"#utility.yul\":4546:4552   */\n      dup7\n        /* \"#utility.yul\":4542:4559   */\n      add\n        /* \"#utility.yul\":4494:4573   */\n      tag_73\n      jump\t// in\n    tag_159:\n        /* \"#utility.yul\":4485:4573   */\n      swap2\n      pop\n        /* \"#utility.yul\":4301:4579   */\n      pop\n        /* \"#utility.yul\":4239:4579   */\n      swap3\n      swap2\n      pop\n      pop\n      jump\t// out\n        /* \"#utility.yul\":4585:5094   */\n    tag_22:\n        /* \"#utility.yul\":4654:4660   */\n      0x00\n        /* \"#utility.yul\":4703:4705   */\n      0x20\n        /* \"#utility.yul\":4691:4700   */\n      dup3\n        /* \"#utility.yul\":4682:4689   */\n      dup5\n        /* \"#utility.yul\":4678:4701   */\n      sub\n        /* \"#utility.yul\":4674:4706   */\n      slt\n        /* \"#utility.yul\":4671:4790   */\n      iszero\n      tag_161\n      jumpi\n        /* \"#utility.yul\":4709:4788   */\n      tag_162\n      tag_57\n      jump\t// in\n    tag_162:\n        /* \"#utility.yul\":4671:4790   */\n    tag_161:\n        /* \"#utility.yul\":4857:4858   */\n      0x00\n        /* \"#utility.yul\":4846:4855   */\n      dup3\n        /* \"#utility.yul\":4842:4859   */\n      add\n        /* \"#utility.yul\":4829:4860   */\n      calldataload\n        /* \"#utility.yul\":4887:4905   */\n      0xffffffffffffffff\n        /* \"#utility.yul\":4879:4885   */\n      dup2\n        /* \"#utility.yul\":4876:4906   */\n      gt\n        /* \"#utility.yul\":4873:4990   */\n      iszero\n      tag_163\n      jumpi\n        /* \"#utility.yul\":4909:4988   */\n      tag_164\n      tag_58\n      jump\t// in\n    tag_164:\n        /* \"#utility.yul\":4873:4990   */\n    tag_163:\n        /* \"#utility.yul\":5014:5077   */\n      tag_165\n        /* \"#utility.yul\":5069:5076   */\n      dup5\n        /* \"#utility.yul\":5060:5066   */\n      dup3\n        /* \"#utility.yul\":5049:5058   */\n      dup6\n        /* \"#utility.yul\":5045:5067   */\n      add\n        /* \"#utility.yul\":5014:5077   */\n      tag_74\n      jump\t// in\n    tag_165:\n        /* \"#utility.yul\":5004:5077   */\n      swap2\n      pop\n        /* \"#utility.yul\":4800:5087   */\n      pop\n        /* \"#utility.yul\":4585:5094   */\n      swap3\n      swap2\n      pop\n      pop\n      jump\t// out\n        /* \"#utility.yul\":5100:5218   */\n    tag_75:\n        /* \"#utility.yul\":5187:5211   */\n      tag_167\n        /* \"#utility.yul\":5205:5210   */\n      dup2\n        /* \"#utility.yul\":5187:5211   */\n      tag_62\n      jump\t// in\n    tag_167:\n        /* \"#utility.yul\":5182:5185   */\n      dup3\n        /* \"#utility.yul\":5175:5212   */\n      mstore\n        /* \"#utility.yul\":5100:5218   */\n      pop\n      pop\n      jump\t// out\n        /* \"#utility.yul\":5224:5323   */\n    tag_76:\n        /* \"#utility.yul\":5276:5282   */\n      0x00\n        /* \"#utility.yul\":5310:5315   */\n      dup2\n        /* \"#utility.yul\":5304:5316   */\n      mload\n        /* \"#utility.yul\":5294:5316   */\n      swap1\n      pop\n        /* \"#utility.yul\":5224:5323   */\n      swap2\n      swap1\n      pop\n      jump\t// out\n        /* \"#utility.yul\":5329:5498   */\n    tag_77:\n        /* \"#utility.yul\":5413:5424   */\n      0x00\n        /* \"#utility.yul\":5447:5453   */\n      dup3\n        /* \"#utility.yul\":5442:5445   */\n      dup3\n        /* \"#utility.yul\":5435:5454   */\n      mstore\n        /* \"#utility.yul\":5487:5491   */\n      0x20\n        /* \"#utility.yul\":5482:5485   */\n      dup3\n        /* \"#utility.yul\":5478:5492   */\n      add\n        /* \"#utility.yul\":5463:5492   */\n      swap1\n      pop\n        /* \"#utility.yul\":5329:5498   */\n      swap3\n      swap2\n      pop\n      pop\n      jump\t// out\n        /* \"#utility.yul\":5504:5643   */\n    tag_78:\n        /* \"#utility.yul\":5593:5599   */\n      dup3\n        /* \"#utility.yul\":5588:5591   */\n      dup2\n        /* \"#utility.yul\":5583:5586   */\n      dup4\n        /* \"#utility.yul\":5577:5600   */\n      mcopy\n        /* \"#utility.yul\":5634:5635   */\n      0x00\n        /* \"#utility.yul\":5625:5631   */\n      dup4\n        /* \"#utility.yul\":5620:5623   */\n      dup4\n        /* \"#utility.yul\":5616:5632   */\n      add\n        /* \"#utility.yul\":5609:5636   */\n      mstore\n        /* \"#utility.yul\":5504:5643   */\n      pop\n      pop\n      pop\n      jump\t// out\n        /* \"#utility.yul\":5649:6026   */\n    tag_79:\n        /* \"#utility.yul\":5737:5740   */\n      0x00\n        /* \"#utility.yul\":5765:5804   */\n      tag_172\n        /* \"#utility.yul\":5798:5803   */\n      dup3\n        /* \"#utility.yul\":5765:5804   */\n      tag_76\n      jump\t// in\n    tag_172:\n        /* \"#utility.yul\":5820:5891   */\n      tag_173\n        /* \"#utility.yul\":5884:5890   */\n      dup2\n        /* \"#utility.yul\":5879:5882   */\n      dup6\n        /* \"#utility.yul\":5820:5891   */\n      tag_77\n      jump\t// in\n    tag_173:\n        /* \"#utility.yul\":5813:5891   */\n      swap4\n      pop\n        /* \"#utility.yul\":5900:5965   */\n      tag_174\n        /* \"#utility.yul\":5958:5964   */\n      dup2\n        /* \"#utility.yul\":5953:5956   */\n      dup6\n        /* \"#utility.yul\":5946:5950   */\n      0x20\n        /* \"#utility.yul\":5939:5944   */\n      dup7\n        /* \"#utility.yul\":5935:5951   */\n      add\n        /* \"#utility.yul\":5900:5965   */\n      tag_78\n      jump\t// in\n    tag_174:\n        /* \"#utility.yul\":5990:6019   */\n      tag_175\n        /* \"#utility.yul\":6012:6018   */\n      dup2\n        /* \"#utility.yul\":5990:6019   */\n      tag_67\n      jump\t// in\n    tag_175:\n        /* \"#utility.yul\":5985:5988   */\n      dup5\n        /* \"#utility.yul\":5981:6020   */\n      add\n        /* \"#utility.yul\":5974:6020   */\n      swap2\n      pop\n        /* \"#utility.yul\":5741:6026   */\n      pop\n        /* \"#utility.yul\":5649:6026   */\n      swap3\n      swap2\n      pop\n      pop\n      jump\t// out\n        /* \"#utility.yul\":6032:6122   */\n    tag_80:\n        /* \"#utility.yul\":6066:6073   */\n      0x00\n        /* \"#utility.yul\":6109:6114   */\n      dup2\n        /* \"#utility.yul\":6102:6115   */\n      iszero\n        /* \"#utility.yul\":6095:6116   */\n      iszero\n        /* \"#utility.yul\":6084:6116   */\n      swap1\n      pop\n        /* \"#utility.yul\":6032:6122   */\n      swap2\n      swap1\n      pop\n      jump\t// out\n        /* \"#utility.yul\":6128:6237   */\n    tag_81:\n        /* \"#utility.yul\":6209:6230   */\n      tag_178\n        /* \"#utility.yul\":6224:6229   */\n      dup2\n        /* \"#utility.yul\":6209:6230   */\n      tag_80\n      jump\t// in\n    tag_178:\n        /* \"#utility.yul\":6204:6207   */\n      dup3\n        /* \"#utility.yul\":6197:6231   */\n      mstore\n        /* \"#utility.yul\":6128:6237   */\n      pop\n      pop\n      jump\t// out\n        /* \"#utility.yul\":6243:6764   */\n    tag_28:\n        /* \"#utility.yul\":6406:6410   */\n      0x00\n        /* \"#utility.yul\":6444:6446   */\n      0x60\n        /* \"#utility.yul\":6433:6442   */\n      dup3\n        /* \"#utility.yul\":6429:6447   */\n      add\n        /* \"#utility.yul\":6421:6447   */\n      swap1\n      pop\n        /* \"#utility.yul\":6457:6528   */\n      tag_180\n        /* \"#utility.yul\":6525:6526   */\n      0x00\n        /* \"#utility.yul\":6514:6523   */\n      dup4\n        /* \"#utility.yul\":6510:6527   */\n      add\n        /* \"#utility.yul\":6501:6507   */\n      dup7\n        /* \"#utility.yul\":6457:6528   */\n      tag_75\n      jump\t// in\n    tag_180:\n        /* \"#utility.yul\":6575:6584   */\n      dup2\n        /* \"#utility.yul\":6569:6573   */\n      dup2\n        /* \"#utility.yul\":6565:6585   */\n      sub\n        /* \"#utility.yul\":6560:6562   */\n      0x20\n        /* \"#utility.yul\":6549:6558   */\n      dup4\n        /* \"#utility.yul\":6545:6563   */\n      add\n        /* \"#utility.yul\":6538:6586   */\n      mstore\n        /* \"#utility.yul\":6603:6681   */\n      tag_181\n        /* \"#utility.yul\":6676:6680   */\n      dup2\n        /* \"#utility.yul\":6667:6673   */\n      dup6\n        /* \"#utility.yul\":6603:6681   */\n      tag_79\n      jump\t// in\n    tag_181:\n        /* \"#utility.yul\":6595:6681   */\n      swap1\n      pop\n        /* \"#utility.yul\":6691:6757   */\n      tag_182\n        /* \"#utility.yul\":6753:6755   */\n      0x40\n        /* \"#utility.yul\":6742:6751   */\n      dup4\n        /* \"#utility.yul\":6738:6756   */\n      add\n        /* \"#utility.yul\":6729:6735   */\n      dup5\n        /* \"#utility.yul\":6691:6757   */\n      tag_81\n      jump\t// in\n    tag_182:\n        /* \"#utility.yul\":6243:6764   */\n      swap5\n      swap4\n      pop\n      pop\n      pop\n      pop\n      jump\t// out\n        /* \"#utility.yul\":6770:6934   */\n    tag_82:\n        /* \"#utility.yul\":6910:6926   */\n      0x4e6f7420617574686f72697a6564000000000000000000000000000000000000\n        /* \"#utility.yul\":6906:6907   */\n      0x00\n        /* \"#utility.yul\":6898:6904   */\n      dup3\n        /* \"#utility.yul\":6894:6908   */\n      add\n        /* \"#utility.yul\":6887:6927   */\n      mstore\n        /* \"#utility.yul\":6770:6934   */\n      pop\n      jump\t// out\n        /* \"#utility.yul\":6940:7306   */\n    tag_83:\n        /* \"#utility.yul\":7082:7085   */\n      0x00\n        /* \"#utility.yul\":7103:7170   */\n      tag_185\n        /* \"#utility.yul\":7167:7169   */\n      0x0e\n        /* \"#utility.yul\":7162:7165   */\n      dup4\n        /* \"#utility.yul\":7103:7170   */\n      tag_77\n      jump\t// in\n    tag_185:\n        /* \"#utility.yul\":7096:7170   */\n      swap2\n      pop\n        /* \"#utility.yul\":7179:7272   */\n      tag_186\n        /* \"#utility.yul\":7268:7271   */\n      dup3\n        /* \"#utility.yul\":7179:7272   */\n      tag_82\n      jump\t// in\n    tag_186:\n        /* \"#utility.yul\":7297:7299   */\n      0x20\n        /* \"#utility.yul\":7292:7295   */\n      dup3\n        /* \"#utility.yul\":7288:7300   */\n      add\n        /* \"#utility.yul\":7281:7300   */\n      swap1\n      pop\n        /* \"#utility.yul\":6940:7306   */\n      swap2\n      swap1\n      pop\n      jump\t// out\n        /* \"#utility.yul\":7312:7731   */\n    tag_32:\n        /* \"#utility.yul\":7478:7482   */\n      0x00\n        /* \"#utility.yul\":7516:7518   */\n      0x20\n        /* \"#utility.yul\":7505:7514   */\n      dup3\n        /* \"#utility.yul\":7501:7519   */\n      add\n        /* \"#utility.yul\":7493:7519   */\n      swap1\n      pop\n        /* \"#utility.yul\":7565:7574   */\n      dup2\n        /* \"#utility.yul\":7559:7563   */\n      dup2\n        /* \"#utility.yul\":7555:7575   */\n      sub\n        /* \"#utility.yul\":7551:7552   */\n      0x00\n        /* \"#utility.yul\":7540:7549   */\n      dup4\n        /* \"#utility.yul\":7536:7553   */\n      add\n        /* \"#utility.yul\":7529:7576   */\n      mstore\n        /* \"#utility.yul\":7593:7724   */\n      tag_188\n        /* \"#utility.yul\":7719:7723   */\n      dup2\n        /* \"#utility.yul\":7593:7724   */\n      tag_83\n      jump\t// in\n    tag_188:\n        /* \"#utility.yul\":7585:7724   */\n      swap1\n      pop\n        /* \"#utility.yul\":7312:7731   */\n      swap2\n      swap1\n      pop\n      jump\t// out\n        /* \"#utility.yul\":7737:8069   */\n    tag_34:\n        /* \"#utility.yul\":7858:7862   */\n      0x00\n        /* \"#utility.yul\":7896:7898   */\n      0x40\n        /* \"#utility.yul\":7885:7894   */\n      dup3\n        /* \"#utility.yul\":7881:7899   */\n      add\n        /* \"#utility.yul\":7873:7899   */\n      swap1\n      pop\n        /* \"#utility.yul\":7909:7980   */\n      tag_190\n        /* \"#utility.yul\":7977:7978   */\n      0x00\n        /* \"#utility.yul\":7966:7975   */\n      dup4\n        /* \"#utility.yul\":7962:7979   */\n      add\n        /* \"#utility.yul\":7953:7959   */\n      dup6\n        /* \"#utility.yul\":7909:7980   */\n      tag_55\n      jump\t// in\n    tag_190:\n        /* \"#utility.yul\":7990:8062   */\n      tag_191\n        /* \"#utility.yul\":8058:8060   */\n      0x20\n        /* \"#utility.yul\":8047:8056   */\n      dup4\n        /* \"#utility.yul\":8043:8061   */\n      add\n        /* \"#utility.yul\":8034:8040   */\n      dup5\n        /* \"#utility.yul\":7990:8062   */\n      tag_75\n      jump\t// in\n    tag_191:\n        /* \"#utility.yul\":7737:8069   */\n      swap4\n      swap3\n      pop\n      pop\n      pop\n      jump\t// out\n        /* \"#utility.yul\":8075:8238   */\n    tag_84:\n        /* \"#utility.yul\":8215:8230   */\n      0x4e6f7420746865206f776e657200000000000000000000000000000000000000\n        /* \"#utility.yul\":8211:8212   */\n      0x00\n        /* \"#utility.yul\":8203:8209   */\n      dup3\n        /* \"#utility.yul\":8199:8213   */\n      add\n        /* \"#utility.yul\":8192:8231   */\n      mstore\n        /* \"#utility.yul\":8075:8238   */\n      pop\n      jump\t// out\n        /* \"#utility.yul\":8244:8610   */\n    tag_85:\n        /* \"#utility.yul\":8386:8389   */\n      0x00\n        /* \"#utility.yul\":8407:8474   */\n      tag_194\n        /* \"#utility.yul\":8471:8473   */\n      0x0d\n        /* \"#utility.yul\":8466:8469   */\n      dup4\n        /* \"#utility.yul\":8407:8474   */\n      tag_77\n      jump\t// in\n    tag_194:\n        /* \"#utility.yul\":8400:8474   */\n      swap2\n      pop\n        /* \"#utility.yul\":8483:8576   */\n      tag_195\n        /* \"#utility.yul\":8572:8575   */\n      dup3\n        /* \"#utility.yul\":8483:8576   */\n      tag_84\n      jump\t// in\n    tag_195:\n        /* \"#utility.yul\":8601:8603   */\n      0x20\n        /* \"#utility.yul\":8596:8599   */\n      dup3\n        /* \"#utility.yul\":8592:8604   */\n      add\n        /* \"#utility.yul\":8585:8604   */\n      swap1\n      pop\n        /* \"#utility.yul\":8244:8610   */\n      swap2\n      swap1\n      pop\n      jump\t// out\n        /* \"#utility.yul\":8616:9035   */\n    tag_38:\n        /* \"#utility.yul\":8782:8786   */\n      0x00\n        /* \"#utility.yul\":8820:8822   */\n      0x20\n        /* \"#utility.yul\":8809:8818   */\n      dup3\n        /* \"#utility.yul\":8805:8823   */\n      add\n        /* \"#utility.yul\":8797:8823   */\n      swap1\n      pop\n        /* \"#utility.yul\":8869:8878   */\n      dup2\n        /* \"#utility.yul\":8863:8867   */\n      dup2\n        /* \"#utility.yul\":8859:8879   */\n      sub\n        /* \"#utility.yul\":8855:8856   */\n      0x00\n        /* \"#utility.yul\":8844:8853   */\n      dup4\n        /* \"#utility.yul\":8840:8857   */\n      add\n        /* \"#utility.yul\":8833:8880   */\n      mstore\n        /* \"#utility.yul\":8897:9028   */\n      tag_197\n        /* \"#utility.yul\":9023:9027   */\n      dup2\n        /* \"#utility.yul\":8897:9028   */\n      tag_85\n      jump\t// in\n    tag_197:\n        /* \"#utility.yul\":8889:9028   */\n      swap1\n      pop\n        /* \"#utility.yul\":8616:9035   */\n      swap2\n      swap1\n      pop\n      jump\t// out\n        /* \"#utility.yul\":9041:9483   */\n    tag_40:\n        /* \"#utility.yul\":9190:9194   */\n      0x00\n        /* \"#utility.yul\":9228:9230   */\n      0x60\n        /* \"#utility.yul\":9217:9226   */\n      dup3\n        /* \"#utility.yul\":9213:9231   */\n      add\n        /* \"#utility.yul\":9205:9231   */\n      swap1\n      pop\n        /* \"#utility.yul\":9241:9312   */\n      tag_199\n        /* \"#utility.yul\":9309:9310   */\n      0x00\n        /* \"#utility.yul\":9298:9307   */\n      dup4\n        /* \"#utility.yul\":9294:9311   */\n      add\n        /* \"#utility.yul\":9285:9291   */\n      dup7\n        /* \"#utility.yul\":9241:9312   */\n      tag_55\n      jump\t// in\n    tag_199:\n        /* \"#utility.yul\":9322:9394   */\n      tag_200\n        /* \"#utility.yul\":9390:9392   */\n      0x20\n        /* \"#utility.yul\":9379:9388   */\n      dup4\n        /* \"#utility.yul\":9375:9393   */\n      add\n        /* \"#utility.yul\":9366:9372   */\n      dup6\n        /* \"#utility.yul\":9322:9394   */\n      tag_75\n      jump\t// in\n    tag_200:\n        /* \"#utility.yul\":9404:9476   */\n      tag_201\n        /* \"#utility.yul\":9472:9474   */\n      0x40\n        /* \"#utility.yul\":9461:9470   */\n      dup4\n        /* \"#utility.yul\":9457:9475   */\n      add\n        /* \"#utility.yul\":9448:9454   */\n      dup5\n        /* \"#utility.yul\":9404:9476   */\n      tag_75\n      jump\t// in\n    tag_201:\n        /* \"#utility.yul\":9041:9483   */\n      swap5\n      swap4\n      pop\n      pop\n      pop\n      pop\n      jump\t// out\n        /* \"#utility.yul\":9489:9669   */\n    tag_86:\n        /* \"#utility.yul\":9537:9614   */\n      0x4e487b7100000000000000000000000000000000000000000000000000000000\n        /* \"#utility.yul\":9534:9535   */\n      0x00\n        /* \"#utility.yul\":9527:9615   */\n      mstore\n        /* \"#utility.yul\":9634:9638   */\n      0x11\n        /* \"#utility.yul\":9631:9632   */\n      0x04\n        /* \"#utility.yul\":9624:9639   */\n      mstore\n        /* \"#utility.yul\":9658:9662   */\n      0x24\n        /* \"#utility.yul\":9655:9656   */\n      0x00\n        /* \"#utility.yul\":9648:9663   */\n      revert\n        /* \"#utility.yul\":9675:9908   */\n    tag_43:\n        /* \"#utility.yul\":9714:9717   */\n      0x00\n        /* \"#utility.yul\":9737:9761   */\n      tag_204\n        /* \"#utility.yul\":9755:9760   */\n      dup3\n        /* \"#utility.yul\":9737:9761   */\n      tag_54\n      jump\t// in\n    tag_204:\n        /* \"#utility.yul\":9728:9761   */\n      swap2\n      pop\n        /* \"#utility.yul\":9783:9849   */\n      0xffffffffffffffffffffffffffffffffffffffffffffffffffffffffffffffff\n        /* \"#utility.yul\":9776:9781   */\n      dup3\n        /* \"#utility.yul\":9773:9850   */\n      sub\n        /* \"#utility.yul\":9770:9873   */\n      tag_205\n      jumpi\n        /* \"#utility.yul\":9853:9871   */\n      tag_206\n      tag_86\n      jump\t// in\n    tag_206:\n        /* \"#utility.yul\":9770:9873   */\n    tag_205:\n        /* \"#utility.yul\":9900:9901   */\n      0x01\n        /* \"#utility.yul\":9893:9898   */\n      dup3\n        /* \"#utility.yul\":9889:9902   */\n      add\n        /* \"#utility.yul\":9882:9902   */\n      swap1\n      pop\n        /* \"#utility.yul\":9675:9908   */\n      swap2\n      swap1\n      pop\n      jump\t// out\n        /* \"#utility.yul\":9914:10094   */\n    tag_87:\n        /* \"#utility.yul\":9962:10039   */\n      0x4e487b7100000000000000000000000000000000000000000000000000000000\n        /* \"#utility.yul\":9959:9960   */\n      0x00\n        /* \"#utility.yul\":9952:10040   */\n      mstore\n        /* \"#utility.yul\":10059:10063   */\n      0x22\n        /* \"#utility.yul\":10056:10057   */\n      0x04\n        /* \"#utility.yul\":10049:10064   */\n      mstore\n        /* \"#utility.yul\":10083:10087   */\n      0x24\n        /* \"#utility.yul\":10080:10081   */\n      0x00\n        /* \"#utility.yul\":10073:10088   */\n      revert\n        /* \"#utility.yul\":10100:10420   */\n    tag_49:\n        /* \"#utility.yul\":10144:10150   */\n      0x00\n        /* \"#utility.yul\":10181:10182   */\n      0x02\n        /* \"#utility.yul\":10175:10179   */\n      dup3\n        /* \"#utility.yul\":10171:10183   */\n      div\n        /* \"#utility.yul\":10161:10183   */\n      swap1\n      pop\n        /* \"#utility.yul\":10228:10229   */\n      0x01\n        /* \"#utility.yul\":10222:10226   */\n      dup3\n        /* \"#utility.yul\":10218:10230   */\n      and\n        /* \"#utility.yul\":10249:10267   */\n      dup1\n        /* \"#utility.yul\":10239:10320   */\n      tag_209\n      jumpi\n        /* \"#utility.yul\":10305:10309   */\n      0x7f\n        /* \"#utility.yul\":10297:10303   */\n      dup3\n        /* \"#utility.yul\":10293:10310   */\n      and\n        /* \"#utility.yul\":10283:10310   */\n      swap2\n      pop\n        /* \"#utility.yul\":10239:10320   */\n    tag_209:\n        /* \"#utility.yul\":10367:10369   */\n      0x20\n        /* \"#utility.yul\":10359:10365   */\n      dup3\n        /* \"#utility.yul\":10356:10370   */\n      lt\n        /* \"#utility.yul\":10336:10354   */\n      dup2\n        /* \"#utility.yul\":10333:10371   */\n      sub\n        /* \"#utility.yul\":10330:10414   */\n      tag_210\n      jumpi\n        /* \"#utility.yul\":10386:10404   */\n      tag_211\n      tag_87\n      jump\t// in\n    tag_211:\n        /* \"#utility.yul\":10330:10414   */\n    tag_210:\n        /* \"#utility.yul\":10151:10420   */\n      pop\n        /* \"#utility.yul\":10100:10420   */\n      swap2\n      swap1\n      pop\n      jump\t// out\n        /* \"#utility.yul\":10426:10567   */\n    tag_88:\n        /* \"#utility.yul\":10475:10479   */\n      0x00\n        /* \"#utility.yul\":10498:10501   */\n      dup2\n        /* \"#utility.yul\":10490:10501   */\n      swap1\n      pop\n        /* \"#utility.yul\":10521:10524   */\n      dup2\n        /* \"#utility.yul\":10518:10519   */\n      0x00\n        /* \"#utility.yul\":10511:10525   */\n      mstore\n        /* \"#utility.yul\":10555:10559   */\n      0x20\n        /* \"#utility.yul\":10552:10553   */\n      0x00\n        /* \"#utility.yul\":10542:10560   */\n      keccak256\n        /* \"#utility.yul\":10534:10560   */\n      swap1\n      pop\n        /* \"#utility.yul\":10426:10567   */\n      swap2\n      swap1\n      pop\n      jump\t// out\n        /* \"#utility.yul\":10573:10666   */\n    tag_89:\n        /* \"#utility.yul\":10610:10616   */\n      0x00\n        /* \"#utility.yul\":10657:10659   */\n      0x20\n        /* \"#utility.yul\":10652:10654   */\n      0x1f\n        /* \"#utility.yul\":10645:10650   */\n      dup4\n        /* \"#utility.yul\":10641:10655   */\n      add\n        /* \"#utility.yul\":10637:10660   */\n      div\n        /* \"#utility.yul\":10627:10660   */\n      swap1\n      pop\n        /* \"#utility.yul\":10573:10666   */\n      swap2\n      swap1\n      pop\n      jump\t// out\n        /* \"#utility.yul\":10672:10779   */\n    tag_90:\n        /* \"#utility.yul\":10716:10724   */\n      0x00\n        /* \"#utility.yul\":10766:10771   */\n      dup3\n        /* \"#utility.yul\":10760:10764   */\n      dup3\n        /* \"#utility.yul\":10756:10772   */\n      shl\n        /* \"#utility.yul\":10735:10772   */\n      swap1\n      pop\n        /* \"#utility.yul\":10672:10779   */\n      swap3\n      swap2\n      pop\n      pop\n      jump\t// out\n        /* \"#utility.yul\":10785:11178   */\n    tag_91:\n        /* \"#utility.yul\":10854:10860   */\n      0x00\n        /* \"#utility.yul\":10904:10905   */\n      0x08\n        /* \"#utility.yul\":10892:10902   */\n      dup4\n        /* \"#utility.yul\":10888:10906   */\n      mul\n        /* \"#utility.yul\":10927:11024   */\n      tag_216\n        /* \"#utility.yul\":10957:11023   */\n      0xffffffffffffffffffffffffffffffffffffffffffffffffffffffffffffffff\n        /* \"#utility.yul\":10946:10955   */\n      dup3\n        /* \"#utility.yul\":10927:11024   */\n      tag_90\n      jump\t// in\n    tag_216:\n        /* \"#utility.yul\":11045:11084   */\n      tag_217\n        /* \"#utility.yul\":11075:11083   */\n      dup7\n        /* \"#utility.yul\":11064:11073   */\n      dup4\n        /* \"#utility.yul\":11045:11084   */\n      tag_90\n      jump\t// in\n    tag_217:\n        /* \"#utility.yul\":11033:11084   */\n      swap6\n      pop\n        /* \"#utility.yul\":11117:11121   */\n      dup1\n        /* \"#utility.yul\":11113:11122   */\n      not\n        /* \"#utility.yul\":11106:11111   */\n      dup5\n        /* \"#utility.yul\":11102:11123   */\n      and\n        /* \"#utility.yul\":11093:11123   */\n      swap4\n      pop\n        /* \"#utility.yul\":11166:11170   */\n      dup1\n        /* \"#utility.yul\":11156:11164   */\n      dup7\n        /* \"#utility.yul\":11152:11171   */\n      and\n        /* \"#utility.yul\":11145:11150   */\n      dup5\n        /* \"#utility.yul\":11142:11172   */\n      or\n        /* \"#utility.yul\":11132:11172   */\n      swap3\n      pop\n        /* \"#utility.yul\":10861:11178   */\n      pop\n      pop\n        /* \"#utility.yul\":10785:11178   */\n      swap4\n      swap3\n      pop\n      pop\n      pop\n      jump\t// out\n        /* \"#utility.yul\":11184:11244   */\n    tag_92:\n        /* \"#utility.yul\":11212:11215   */\n      0x00\n        /* \"#utility.yul\":11233:11238   */\n      dup2\n        /* \"#utility.yul\":11226:11238   */\n      swap1\n      pop\n        /* \"#utility.yul\":11184:11244   */\n      swap2\n      swap1\n      pop\n      jump\t// out\n        /* \"#utility.yul\":11250:11392   */\n    tag_93:\n        /* \"#utility.yul\":11300:11309   */\n      0x00\n        /* \"#utility.yul\":11333:11386   */\n      tag_220\n        /* \"#utility.yul\":11351:11385   */\n      tag_221\n        /* \"#utility.yul\":11360:11384   */\n      tag_222\n        /* \"#utility.yul\":11378:11383   */\n      dup5\n        /* \"#utility.yul\":11360:11384   */\n      tag_54\n      jump\t// in\n    tag_222:\n        /* \"#utility.yul\":11351:11385   */\n      tag_92\n      jump\t// in\n    tag_221:\n        /* \"#utility.yul\":11333:11386   */\n      tag_54\n      jump\t// in\n    tag_220:\n        /* \"#utility.yul\":11320:11386   */\n      swap1\n      pop\n        /* \"#utility.yul\":11250:11392   */\n      swap2\n      swap1\n      pop\n      jump\t// out\n        /* \"#utility.yul\":11398:11473   */\n    tag_94:\n        /* \"#utility.yul\":11441:11444   */\n      0x00\n        /* \"#utility.yul\":11462:11467   */\n      dup2\n        /* \"#utility.yul\":11455:11467   */\n      swap1\n      pop\n        /* \"#utility.yul\":11398:11473   */\n      swap2\n      swap1\n      pop\n      jump\t// out\n        /* \"#utility.yul\":11479:11748   */\n    tag_95:\n        /* \"#utility.yul\":11589:11628   */\n      tag_225\n        /* \"#utility.yul\":11620:11627   */\n      dup4\n        /* \"#utility.yul\":11589:11628   */\n      tag_93\n      jump\t// in\n    tag_225:\n        /* \"#utility.yul\":11650:11741   */\n      tag_226\n        /* \"#utility.yul\":11699:11740   */\n      tag_227\n        /* \"#utility.yul\":11723:11739   */\n      dup3\n        /* \"#utility.yul\":11699:11740   */\n      tag_94\n      jump\t// in\n    tag_227:\n        /* \"#utility.yul\":11691:11697   */\n      dup5\n        /* \"#utility.yul\":11684:11688   */\n      dup5\n        /* \"#utility.yul\":11678:11689   */\n      sload\n        /* \"#utility.yul\":11650:11741   */\n      tag_91\n      jump\t// in\n    tag_226:\n        /* \"#utility.yul\":11644:11648   */\n      dup3\n        /* \"#utility.yul\":11637:11742   */\n      sstore\n        /* \"#utility.yul\":11555:11748   */\n      pop\n        /* \"#utility.yul\":11479:11748   */\n      pop\n      pop\n      pop\n      jump\t// out\n        /* \"#utility.yul\":11754:11827   */\n    tag_96:\n        /* \"#utility.yul\":11799:11802   */\n      0x00\n        /* \"#utility.yul\":11820:11821   */\n      0x00\n        /* \"#utility.yul\":11813:11821   */\n      swap1\n      pop\n        /* \"#utility.yul\":11754:11827   */\n      swap1\n      jump\t// out\n        /* \"#utility.yul\":11833:12022   */\n    tag_97:\n        /* \"#utility.yul\":11910:11942   */\n      tag_230\n      tag_96\n      jump\t// in\n    tag_230:\n        /* \"#utility.yul\":11951:12016   */\n      tag_231\n        /* \"#utility.yul\":12009:12015   */\n      dup2\n        /* \"#utility.yul\":12001:12007   */\n      dup5\n        /* \"#utility.yul\":11995:11999   */\n      dup5\n        /* \"#utility.yul\":11951:12016   */\n      tag_95\n      jump\t// in\n    tag_231:\n        /* \"#utility.yul\":11886:12022   */\n      pop\n        /* \"#utility.yul\":11833:12022   */\n      pop\n      pop\n      jump\t// out\n        /* \"#utility.yul\":12028:12214   */\n    tag_98:\n        /* \"#utility.yul\":12088:12208   */\n    tag_233:\n        /* \"#utility.yul\":12105:12108   */\n      dup2\n        /* \"#utility.yul\":12098:12103   */\n      dup2\n        /* \"#utility.yul\":12095:12109   */\n      lt\n        /* \"#utility.yul\":12088:12208   */\n      iszero\n      tag_235\n      jumpi\n        /* \"#utility.yul\":12159:12198   */\n      tag_236\n        /* \"#utility.yul\":12196:12197   */\n      0x00\n        /* \"#utility.yul\":12189:12194   */\n      dup3\n        /* \"#utility.yul\":12159:12198   */\n      tag_97\n      jump\t// in\n    tag_236:\n        /* \"#utility.yul\":12132:12133   */\n      0x01\n        /* \"#utility.yul\":12125:12130   */\n      dup2\n        /* \"#utility.yul\":12121:12134   */\n      add\n        /* \"#utility.yul\":12112:12134   */\n      swap1\n      pop\n        /* \"#utility.yul\":12088:12208   */\n      jump(tag_233)\n    tag_235:\n        /* \"#utility.yul\":12028:12214   */\n      pop\n      pop\n      jump\t// out\n        /* \"#utility.yul\":12220:12763   */\n    tag_99:\n        /* \"#utility.yul\":12321:12323   */\n      0x1f\n        /* \"#utility.yul\":12316:12319   */\n      dup3\n        /* \"#utility.yul\":12313:12324   */\n      gt\n        /* \"#utility.yul\":12310:12756   */\n      iszero\n      tag_238\n      jumpi\n        /* \"#utility.yul\":12355:12393   */\n      tag_239\n        /* \"#utility.yul\":12387:12392   */\n      dup2\n        /* \"#utility.yul\":12355:12393   */\n      tag_88\n      jump\t// in\n    tag_239:\n        /* \"#utility.yul\":12439:12468   */\n      tag_240\n        /* \"#utility.yul\":12457:12467   */\n      dup5\n        /* \"#utility.yul\":12439:12468   */\n      tag_89\n      jump\t// in\n    tag_240:\n        /* \"#utility.yul\":12429:12437   */\n      dup2\n        /* \"#utility.yul\":12425:12469   */\n      add\n        /* \"#utility.yul\":12622:12624   */\n      0x20\n        /* \"#utility.yul\":12610:12620   */\n      dup6\n        /* \"#utility.yul\":12607:12625   */\n      lt\n        /* \"#utility.yul\":12604:12653   */\n      iszero\n      tag_241\n      jumpi\n        /* \"#utility.yul\":12643:12651   */\n      dup2\n        /* \"#utility.yul\":12628:12651   */\n      swap1\n      pop\n        /* \"#utility.yul\":12604:12653   */\n    tag_241:\n        /* \"#utility.yul\":12666:12746   */\n      tag_242\n        /* \"#utility.yul\":12722:12744   */\n      tag_243\n        /* \"#utility.yul\":12740:12743   */\n      dup6\n        /* \"#utility.yul\":12722:12744   */\n      tag_89\n      jump\t// in\n    tag_243:\n        /* \"#utility.yul\":12712:12720   */\n      dup4\n        /* \"#utility.yul\":12708:12745   */\n      add\n        /* \"#utility.yul\":12695:12706   */\n      dup3\n        /* \"#utility.yul\":12666:12746   */\n      tag_98\n      jump\t// in\n    tag_242:\n        /* \"#utility.yul\":12325:12756   */\n      pop\n      pop\n        /* \"#utility.yul\":12310:12756   */\n    tag_238:\n        /* \"#utility.yul\":12220:12763   */\n      pop\n      pop\n      pop\n      jump\t// out\n        /* \"#utility.yul\":12769:12886   */\n    tag_100:\n        /* \"#utility.yul\":12823:12831   */\n      0x00\n        /* \"#utility.yul\":12873:12878   */\n      dup3\n        /* \"#utility.yul\":12867:12871   */\n      dup3\n        /* \"#utility.yul\":12863:12879   */\n      shr\n        /* \"#utility.yul\":12842:12879   */\n      swap1\n      pop\n        /* \"#utility.yul\":12769:12886   */\n      swap3\n      swap2\n      pop\n      pop\n      jump\t// out\n        /* \"#utility.yul\":12892:13061   */\n    tag_101:\n        /* \"#utility.yul\":12936:12942   */\n      0x00\n        /* \"#utility.yul\":12969:13020   */\n      tag_246\n        /* \"#utility.yul\":13017:13018   */\n      0x00\n        /* \"#utility.yul\":13013:13019   */\n      not\n        /* \"#utility.yul\":13005:13010   */\n      dup5\n        /* \"#utility.yul\":13002:13003   */\n      0x08\n        /* \"#utility.yul\":12998:13011   */\n      mul\n        /* \"#utility.yul\":12969:13020   */\n      tag_100\n      jump\t// in\n    tag_246:\n        /* \"#utility.yul\":12965:13021   */\n      not\n        /* \"#utility.yul\":13050:13054   */\n      dup1\n        /* \"#utility.yul\":13044:13048   */\n      dup4\n        /* \"#utility.yul\":13040:13055   */\n      and\n        /* \"#utility.yul\":13030:13055   */\n      swap2\n      pop\n        /* \"#utility.yul\":12943:13061   */\n      pop\n        /* \"#utility.yul\":12892:13061   */\n      swap3\n      swap2\n      pop\n      pop\n      jump\t// out\n        /* \"#utility.yul\":13066:13361   */\n    tag_102:\n        /* \"#utility.yul\":13142:13146   */\n      0x00\n        /* \"#utility.yul\":13288:13317   */\n      tag_248\n        /* \"#utility.yul\":13313:13316   */\n      dup4\n        /* \"#utility.yul\":13307:13311   */\n      dup4\n        /* \"#utility.yul\":13288:13317   */\n      tag_101\n      jump\t// in\n    tag_248:\n        /* \"#utility.yul\":13280:13317   */\n      swap2\n      pop\n        /* \"#utility.yul\":13350:13353   */\n      dup3\n        /* \"#utility.yul\":13347:13348   */\n      0x02\n        /* \"#utility.yul\":13343:13354   */\n      mul\n        /* \"#utility.yul\":13337:13341   */\n      dup3\n        /* \"#utility.yul\":13334:13355   */\n      or\n        /* \"#utility.yul\":13326:13355   */\n      swap1\n      pop\n        /* \"#utility.yul\":13066:13361   */\n      swap3\n      swap2\n      pop\n      pop\n      jump\t// out\n        /* \"#utility.yul\":13366:14761   */\n    tag_45:\n        /* \"#utility.yul\":13483:13520   */\n      tag_250\n        /* \"#utility.yul\":13516:13519   */\n      dup3\n        /* \"#utility.yul\":13483:13520   */\n      tag_76\n      jump\t// in\n    tag_250:\n        /* \"#utility.yul\":13585:13603   */\n      0xffffffffffffffff\n        /* \"#utility.yul\":13577:13583   */\n      dup2\n        /* \"#utility.yul\":13574:13604   */\n      gt\n        /* \"#utility.yul\":13571:13627   */\n      iszero\n      tag_251\n      jumpi\n        /* \"#utility.yul\":13607:13625   */\n      tag_252\n      tag_68\n      jump\t// in\n    tag_252:\n        /* \"#utility.yul\":13571:13627   */\n    tag_251:\n        /* \"#utility.yul\":13651:13689   */\n      tag_253\n        /* \"#utility.yul\":13683:13687   */\n      dup3\n        /* \"#utility.yul\":13677:13688   */\n      sload\n        /* \"#utility.yul\":13651:13689   */\n      tag_49\n      jump\t// in\n    tag_253:\n        /* \"#utility.yul\":13736:13803   */\n      tag_254\n        /* \"#utility.yul\":13796:13802   */\n      dup3\n        /* \"#utility.yul\":13788:13794   */\n      dup3\n        /* \"#utility.yul\":13782:13786   */\n      dup6\n        /* \"#utility.yul\":13736:13803   */\n      tag_99\n      jump\t// in\n    tag_254:\n        /* \"#utility.yul\":13830:13831   */\n      0x00\n        /* \"#utility.yul\":13854:13858   */\n      0x20\n        /* \"#utility.yul\":13841:13858   */\n      swap1\n      pop\n        /* \"#utility.yul\":13886:13888   */\n      0x1f\n        /* \"#utility.yul\":13878:13884   */\n      dup4\n        /* \"#utility.yul\":13875:13889   */\n      gt\n        /* \"#utility.yul\":13903:13904   */\n      0x01\n        /* \"#utility.yul\":13898:14516   */\n      dup2\n      eq\n      tag_256\n      jumpi\n        /* \"#utility.yul\":14560:14561   */\n      0x00\n        /* \"#utility.yul\":14577:14583   */\n      dup5\n        /* \"#utility.yul\":14574:14651   */\n      iszero\n      tag_257\n      jumpi\n        /* \"#utility.yul\":14626:14635   */\n      dup3\n        /* \"#utility.yul\":14621:14624   */\n      dup8\n        /* \"#utility.yul\":14617:14636   */\n      add\n        /* \"#utility.yul\":14611:14637   */\n      mload\n        /* \"#utility.yul\":14602:14637   */\n      swap1\n      pop\n        /* \"#utility.yul\":14574:14651   */\n    tag_257:\n        /* \"#utility.yul\":14677:14744   */\n      tag_258\n        /* \"#utility.yul\":14737:14743   */\n      dup6\n        /* \"#utility.yul\":14730:14735   */\n      dup3\n        /* \"#utility.yul\":14677:14744   */\n      tag_102\n      jump\t// in\n    tag_258:\n        /* \"#utility.yul\":14671:14675   */\n      dup7\n        /* \"#utility.yul\":14664:14745   */\n      sstore\n        /* \"#utility.yul\":14533:14755   */\n      pop\n        /* \"#utility.yul\":13868:14755   */\n      jump(tag_255)\n        /* \"#utility.yul\":13898:14516   */\n    tag_256:\n        /* \"#utility.yul\":13950:13954   */\n      0x1f\n        /* \"#utility.yul\":13946:13955   */\n      not\n        /* \"#utility.yul\":13938:13944   */\n      dup5\n        /* \"#utility.yul\":13934:13956   */\n      and\n        /* \"#utility.yul\":13984:14021   */\n      tag_259\n        /* \"#utility.yul\":14016:14020   */\n      dup7\n        /* \"#utility.yul\":13984:14021   */\n      tag_88\n      jump\t// in\n    tag_259:\n        /* \"#utility.yul\":14043:14044   */\n      0x00\n        /* \"#utility.yul\":14057:14265   */\n    tag_260:\n        /* \"#utility.yul\":14071:14078   */\n      dup3\n        /* \"#utility.yul\":14068:14069   */\n      dup2\n        /* \"#utility.yul\":14065:14079   */\n      lt\n        /* \"#utility.yul\":14057:14265   */\n      iszero\n      tag_262\n      jumpi\n        /* \"#utility.yul\":14150:14159   */\n      dup5\n        /* \"#utility.yul\":14145:14148   */\n      dup10\n        /* \"#utility.yul\":14141:14160   */\n      add\n        /* \"#utility.yul\":14135:14161   */\n      mload\n        /* \"#utility.yul\":14127:14133   */\n      dup3\n        /* \"#utility.yul\":14120:14162   */\n      sstore\n        /* \"#utility.yul\":14201:14202   */\n      0x01\n        /* \"#utility.yul\":14193:14199   */\n      dup3\n        /* \"#utility.yul\":14189:14203   */\n      add\n        /* \"#utility.yul\":14179:14203   */\n      swap2\n      pop\n        /* \"#utility.yul\":14248:14250   */\n      0x20\n        /* \"#utility.yul\":14237:14246   */\n      dup6\n        /* \"#utility.yul\":14233:14251   */\n      add\n        /* \"#utility.yul\":14220:14251   */\n      swap5\n      pop\n        /* \"#utility.yul\":14094:14098   */\n      0x20\n        /* \"#utility.yul\":14091:14092   */\n      dup2\n        /* \"#utility.yul\":14087:14099   */\n      add\n        /* \"#utility.yul\":14082:14099   */\n      swap1\n      pop\n        /* \"#utility.yul\":14057:14265   */\n      jump(tag_260)\n    tag_262:\n        /* \"#utility.yul\":14293:14299   */\n      dup7\n        /* \"#utility.yul\":14284:14291   */\n      dup4\n        /* \"#utility.yul\":14281:14300   */\n      lt\n        /* \"#utility.yul\":14278:14457   */\n      iszero\n      tag_263\n      jumpi\n        /* \"#utility.yul\":14351:14360   */\n      dup5\n        /* \"#utility.yul\":14346:14349   */\n      dup10\n        /* \"#utility.yul\":14342:14361   */\n      add\n        /* \"#utility.yul\":14336:14362   */\n      mload\n        /* \"#utility.yul\":14394:14442   */\n      tag_264\n        /* \"#utility.yul\":14436:14440   */\n      0x1f\n        /* \"#utility.yul\":14428:14434   */\n      dup10\n        /* \"#utility.yul\":14424:14441   */\n      and\n        /* \"#utility.yul\":14413:14422   */\n      dup3\n        /* \"#utility.yul\":14394:14442   */\n      tag_101\n      jump\t// in\n    tag_264:\n        /* \"#utility.yul\":14386:14392   */\n      dup4\n        /* \"#utility.yul\":14379:14443   */\n      sstore\n        /* \"#utility.yul\":14301:14457   */\n      pop\n        /* \"#utility.yul\":14278:14457   */\n    tag_263:\n        /* \"#utility.yul\":14503:14504   */\n      0x01\n        /* \"#utility.yul\":14499:14500   */\n      0x02\n        /* \"#utility.yul\":14491:14497   */\n      dup9\n        /* \"#utility.yul\":14487:14501   */\n      mul\n        /* \"#utility.yul\":14483:14505   */\n      add\n        /* \"#utility.yul\":14477:14481   */\n      dup9\n        /* \"#utility.yul\":14470:14506   */\n      sstore\n        /* \"#utility.yul\":13905:14516   */\n      pop\n      pop\n      pop\n        /* \"#utility.yul\":13868:14755   */\n    tag_255:\n      pop\n        /* \"#utility.yul\":13458:14761   */\n      pop\n      pop\n      pop\n        /* \"#utility.yul\":13366:14761   */\n      pop\n      pop\n      jump\t// out\n        /* \"#utility.yul\":14767:15300   */\n    tag_47:\n        /* \"#utility.yul\":14936:14940   */\n      0x00\n        /* \"#utility.yul\":14974:14976   */\n      0x60\n        /* \"#utility.yul\":14963:14972   */\n      dup3\n        /* \"#utility.yul\":14959:14977   */\n      add\n        /* \"#utility.yul\":14951:14977   */\n      swap1\n      pop\n        /* \"#utility.yul\":14987:15058   */\n      tag_266\n        /* \"#utility.yul\":15055:15056   */\n      0x00\n        /* \"#utility.yul\":15044:15053   */\n      dup4\n        /* \"#utility.yul\":15040:15057   */\n      add\n        /* \"#utility.yul\":15031:15037   */\n      dup7\n        /* \"#utility.yul\":14987:15058   */\n      tag_55\n      jump\t// in\n    tag_266:\n        /* \"#utility.yul\":15068:15140   */\n      tag_267\n        /* \"#utility.yul\":15136:15138   */\n      0x20\n        /* \"#utility.yul\":15125:15134   */\n      dup4\n        /* \"#utility.yul\":15121:15139   */\n      add\n        /* \"#utility.yul\":15112:15118   */\n      dup6\n        /* \"#utility.yul\":15068:15140   */\n      tag_75\n      jump\t// in\n    tag_267:\n        /* \"#utility.yul\":15187:15196   */\n      dup2\n        /* \"#utility.yul\":15181:15185   */\n      dup2\n        /* \"#utility.yul\":15177:15197   */\n      sub\n        /* \"#utility.yul\":15172:15174   */\n      0x40\n        /* \"#utility.yul\":15161:15170   */\n      dup4\n        /* \"#utility.yul\":15157:15175   */\n      add\n        /* \"#utility.yul\":15150:15198   */\n      mstore\n        /* \"#utility.yul\":15215:15293   */\n      tag_268\n        /* \"#utility.yul\":15288:15292   */\n      dup2\n        /* \"#utility.yul\":15279:15285   */\n      dup5\n        /* \"#utility.yul\":15215:15293   */\n      tag_79\n      jump\t// in\n    tag_268:\n        /* \"#utility.yul\":15207:15293   */\n      swap1\n      pop\n        /* \"#utility.yul\":14767:15300   */\n      swap5\n      swap4\n      pop\n      pop\n      pop\n      pop\n      jump\t// out\n\n    auxdata: 0xa26469706673582212206cc437e75486626cc8a52f51a208bac9810986a004a6460932416370c287a54064736f6c634300081c0033\n}\n",
				"bytecode": {
					"linkReferences": {},
					"object": "6080604052348015600e575f5ffd5b505f600181905550610d7a806100235f395ff3fe608060405234801561000f575f5ffd5b5060043610610055575f3560e01c806358f313bb146100595780636dda61d91461007757806388eeeaa614610093578063b7f5576d146100af578063c2ed2b05146100cb575b5f5ffd5b6100616100fd565b60405161006e919061053d565b60405180910390f35b610091600480360381019061008c9190610591565b610103565b005b6100ad60048036038101906100a89190610616565b610209565b005b6100c960048036038101906100c49190610790565b610337565b005b6100e560048036038101906100e09190610591565b61044f565b6040516100f493929190610860565b60405180910390f35b60015481565b3373ffffffffffffffffffffffffffffffffffffffff165f5f8381526020019081526020015f205f015f9054906101000a900473ffffffffffffffffffffffffffffffffffffffff1673ffffffffffffffffffffffffffffffffffffffff16146101a2576040517f08c379a0000000000000000000000000000000000000000000000000000000008152600401610199906108e6565b60405180910390fd5b60015f5f8381526020019081526020015f206002015f6101000a81548160ff0219169083151502179055507f6966a20715f4337f34fd08d8aa190a3c343cf21ad67677b447632194d8d6030881336040516101fe929190610904565b60405180910390a150565b3373ffffffffffffffffffffffffffffffffffffffff165f5f8481526020019081526020015f205f015f9054906101000a900473ffffffffffffffffffffffffffffffffffffffff1673ffffffffffffffffffffffffffffffffffffffff16146102a8576040517f08c379a000000000000000000000000000000000000000000000000000000000815260040161029f90610975565b60405180910390fd5b805f5f8481526020019081526020015f205f015f6101000a81548173ffffffffffffffffffffffffffffffffffffffff021916908373ffffffffffffffffffffffffffffffffffffffff1602179055507fafd9f2e6dfdde17d593b303bbbb47053d98a7ce79b03ca053d58ae499c7f55ae82338360405161032b93929190610993565b60405180910390a15050565b60015f815480929190610349906109f5565b919050555060405180606001604052803373ffffffffffffffffffffffffffffffffffffffff1681526020018281526020015f15158152505f5f60015481526020019081526020015f205f820151815f015f6101000a81548173ffffffffffffffffffffffffffffffffffffffff021916908373ffffffffffffffffffffffffffffffffffffffff16021790555060208201518160010190816103ec9190610c39565b506040820151816002015f6101000a81548160ff0219169083151502179055509050507fffaa94bbdb06ce69a1cd16a5a05500d4475f2b769b7da620be594121265017f9600154338360405161044493929190610d08565b60405180910390a150565b5f602052805f5260405f205f91509050805f015f9054906101000a900473ffffffffffffffffffffffffffffffffffffffff169080600101805461049290610a69565b80601f01602080910402602001604051908101604052809291908181526020018280546104be90610a69565b80156105095780601f106104e057610100808354040283529160200191610509565b820191905f5260205f20905b8154815290600101906020018083116104ec57829003601f168201915b505050505090806002015f9054906101000a900460ff16905083565b5f819050919050565b61053781610525565b82525050565b5f6020820190506105505f83018461052e565b92915050565b5f604051905090565b5f5ffd5b5f5ffd5b61057081610525565b811461057a575f5ffd5b50565b5f8135905061058b81610567565b92915050565b5f602082840312156105a6576105a561055f565b5b5f6105b38482850161057d565b91505092915050565b5f73ffffffffffffffffffffffffffffffffffffffff82169050919050565b5f6105e5826105bc565b9050919050565b6105f5816105db565b81146105ff575f5ffd5b50565b5f81359050610610816105ec565b92915050565b5f5f6040838503121561062c5761062b61055f565b5b5f6106398582860161057d565b925050602061064a85828601610602565b9150509250929050565b5f5ffd5b5f5ffd5b5f601f19601f8301169050919050565b7f4e487b71000000000000000000000000000000000000000000000000000000005f52604160045260245ffd5b6106a28261065c565b810181811067ffffffffffffffff821117156106c1576106c061066c565b5b80604052505050565b5f6106d3610556565b90506106df8282610699565b919050565b5f67ffffffffffffffff8211156106fe576106fd61066c565b5b6107078261065c565b9050602081019050919050565b828183375f83830152505050565b5f61073461072f846106e4565b6106ca565b9050828152602081018484840111156107505761074f610658565b5b61075b848285610714565b509392505050565b5f82601f83011261077757610776610654565b5b8135610787848260208601610722565b91505092915050565b5f602082840312156107a5576107a461055f565b5b5f82013567ffffffffffffffff8111156107c2576107c1610563565b5b6107ce84828501610763565b91505092915050565b6107e0816105db565b82525050565b5f81519050919050565b5f82825260208201905092915050565b8281835e5f83830152505050565b5f610818826107e6565b61082281856107f0565b9350610832818560208601610800565b61083b8161065c565b840191505092915050565b5f8115159050919050565b61085a81610846565b82525050565b5f6060820190506108735f8301866107d7565b8181036020830152610885818561080e565b90506108946040830184610851565b949350505050565b7f4e6f7420617574686f72697a65640000000000000000000000000000000000005f82015250565b5f6108d0600e836107f0565b91506108db8261089c565b602082019050919050565b5f6020820190508181035f8301526108fd816108c4565b9050919050565b5f6040820190506109175f83018561052e565b61092460208301846107d7565b9392505050565b7f4e6f7420746865206f776e6572000000000000000000000000000000000000005f82015250565b5f61095f600d836107f0565b915061096a8261092b565b602082019050919050565b5f6020820190508181035f83015261098c81610953565b9050919050565b5f6060820190506109a65f83018661052e565b6109b360208301856107d7565b6109c060408301846107d7565b949350505050565b7f4e487b71000000000000000000000000000000000000000000000000000000005f52601160045260245ffd5b5f6109ff82610525565b91507fffffffffffffffffffffffffffffffffffffffffffffffffffffffffffffffff8203610a3157610a306109c8565b5b600182019050919050565b7f4e487b71000000000000000000000000000000000000000000000000000000005f52602260045260245ffd5b5f6002820490506001821680610a8057607f821691505b602082108103610a9357610a92610a3c565b5b50919050565b5f819050815f5260205f209050919050565b5f6020601f8301049050919050565b5f82821b905092915050565b5f60088302610af57fffffffffffffffffffffffffffffffffffffffffffffffffffffffffffffffff82610aba565b610aff8683610aba565b95508019841693508086168417925050509392505050565b5f819050919050565b5f610b3a610b35610b3084610525565b610b17565b610525565b9050919050565b5f819050919050565b610b5383610b20565b610b67610b5f82610b41565b848454610ac6565b825550505050565b5f5f905090565b610b7e610b6f565b610b89818484610b4a565b505050565b5b81811015610bac57610ba15f82610b76565b600181019050610b8f565b5050565b601f821115610bf157610bc281610a99565b610bcb84610aab565b81016020851015610bda578190505b610bee610be685610aab565b830182610b8e565b50505b505050565b5f82821c905092915050565b5f610c115f1984600802610bf6565b1980831691505092915050565b5f610c298383610c02565b9150826002028217905092915050565b610c42826107e6565b67ffffffffffffffff811115610c5b57610c5a61066c565b5b610c658254610a69565b610c70828285610bb0565b5f60209050601f831160018114610ca1575f8415610c8f578287015190505b610c998582610c1e565b865550610d00565b601f198416610caf86610a99565b5f5b82811015610cd657848901518255600182019150602085019450602081019050610cb1565b86831015610cf35784890151610cef601f891682610c02565b8355505b6001600288020188555050505b505050505050565b5f606082019050610d1b5f83018661052e565b610d2860208301856107d7565b8181036040830152610d3a818461080e565b905094935050505056fea26469706673582212206cc437e75486626cc8a52f51a208bac9810986a004a6460932416370c287a54064736f6c634300081c0033",
					"opcodes": "PUSH1 0x80 PUSH1 0x40 MSTORE CALLVALUE DUP1 ISZERO PUSH1 0xE JUMPI PUSH0 PUSH0 REVERT JUMPDEST POP PUSH0 PUSH1 0x1 DUP2 SWAP1 SSTORE POP PUSH2 0xD7A DUP1 PUSH2 0x23 PUSH0 CODECOPY PUSH0 RETURN INVALID PUSH1 0x80 PUSH1 0x40 MSTORE CALLVALUE DUP1 ISZERO PUSH2 0xF JUMPI PUSH0 PUSH0 REVERT JUMPDEST POP PUSH1 0x4 CALLDATASIZE LT PUSH2 0x55 JUMPI PUSH0 CALLDATALOAD PUSH1 0xE0 SHR DUP1 PUSH4 0x58F313BB EQ PUSH2 0x59 JUMPI DUP1 PUSH4 0x6DDA61D9 EQ PUSH2 0x77 JUMPI DUP1 PUSH4 0x88EEEAA6 EQ PUSH2 0x93 JUMPI DUP1 PUSH4 0xB7F5576D EQ PUSH2 0xAF JUMPI DUP1 PUSH4 0xC2ED2B05 EQ PUSH2 0xCB JUMPI JUMPDEST PUSH0 PUSH0 REVERT JUMPDEST PUSH2 0x61 PUSH2 0xFD JUMP JUMPDEST PUSH1 0x40 MLOAD PUSH2 0x6E SWAP2 SWAP1 PUSH2 0x53D JUMP JUMPDEST PUSH1 0x40 MLOAD DUP1 SWAP2 SUB SWAP1 RETURN JUMPDEST PUSH2 0x91 PUSH1 0x4 DUP1 CALLDATASIZE SUB DUP2 ADD SWAP1 PUSH2 0x8C SWAP2 SWAP1 PUSH2 0x591 JUMP JUMPDEST PUSH2 0x103 JUMP JUMPDEST STOP JUMPDEST PUSH2 0xAD PUSH1 0x4 DUP1 CALLDATASIZE SUB DUP2 ADD SWAP1 PUSH2 0xA8 SWAP2 SWAP1 PUSH2 0x616 JUMP JUMPDEST PUSH2 0x209 JUMP JUMPDEST STOP JUMPDEST PUSH2 0xC9 PUSH1 0x4 DUP1 CALLDATASIZE SUB DUP2 ADD SWAP1 PUSH2 0xC4 SWAP2 SWAP1 PUSH2 0x790 JUMP JUMPDEST PUSH2 0x337 JUMP JUMPDEST STOP JUMPDEST PUSH2 0xE5 PUSH1 0x4 DUP1 CALLDATASIZE SUB DUP2 ADD SWAP1 PUSH2 0xE0 SWAP2 SWAP1 PUSH2 0x591 JUMP JUMPDEST PUSH2 0x44F JUMP JUMPDEST PUSH1 0x40 MLOAD PUSH2 0xF4 SWAP4 SWAP3 SWAP2 SWAP1 PUSH2 0x860 JUMP JUMPDEST PUSH1 0x40 MLOAD DUP1 SWAP2 SUB SWAP1 RETURN JUMPDEST PUSH1 0x1 SLOAD DUP2 JUMP JUMPDEST CALLER PUSH20 0xFFFFFFFFFFFFFFFFFFFFFFFFFFFFFFFFFFFFFFFF AND PUSH0 PUSH0 DUP4 DUP2 MSTORE PUSH1 0x20 ADD SWAP1 DUP2 MSTORE PUSH1 0x20 ADD PUSH0 KECCAK256 PUSH0 ADD PUSH0 SWAP1 SLOAD SWAP1 PUSH2 0x100 EXP SWAP1 DIV PUSH20 0xFFFFFFFFFFFFFFFFFFFFFFFFFFFFFFFFFFFFFFFF AND PUSH20 0xFFFFFFFFFFFFFFFFFFFFFFFFFFFFFFFFFFFFFFFF AND EQ PUSH2 0x1A2 JUMPI PUSH1 0x40 MLOAD PUSH32 0x8C379A000000000000000000000000000000000000000000000000000000000 DUP2 MSTORE PUSH1 0x4 ADD PUSH2 0x199 SWAP1 PUSH2 0x8E6 JUMP JUMPDEST PUSH1 0x40 MLOAD DUP1 SWAP2 SUB SWAP1 REVERT JUMPDEST PUSH1 0x1 PUSH0 PUSH0 DUP4 DUP2 MSTORE PUSH1 0x20 ADD SWAP1 DUP2 MSTORE PUSH1 0x20 ADD PUSH0 KECCAK256 PUSH1 0x2 ADD PUSH0 PUSH2 0x100 EXP DUP2 SLOAD DUP2 PUSH1 0xFF MUL NOT AND SWAP1 DUP4 ISZERO ISZERO MUL OR SWAP1 SSTORE POP PUSH32 0x6966A20715F4337F34FD08D8AA190A3C343CF21AD67677B447632194D8D60308 DUP2 CALLER PUSH1 0x40 MLOAD PUSH2 0x1FE SWAP3 SWAP2 SWAP1 PUSH2 0x904 JUMP JUMPDEST PUSH1 0x40 MLOAD DUP1 SWAP2 SUB SWAP1 LOG1 POP JUMP JUMPDEST CALLER PUSH20 0xFFFFFFFFFFFFFFFFFFFFFFFFFFFFFFFFFFFFFFFF AND PUSH0 PUSH0 DUP5 DUP2 MSTORE PUSH1 0x20 ADD SWAP1 DUP2 MSTORE PUSH1 0x20 ADD PUSH0 KECCAK256 PUSH0 ADD PUSH0 SWAP1 SLOAD SWAP1 PUSH2 0x100 EXP SWAP1 DIV PUSH20 0xFFFFFFFFFFFFFFFFFFFFFFFFFFFFFFFFFFFFFFFF AND PUSH20 0xFFFFFFFFFFFFFFFFFFFFFFFFFFFFFFFFFFFFFFFF AND EQ PUSH2 0x2A8 JUMPI PUSH1 0x40 MLOAD PUSH32 0x8C379A000000000000000000000000000000000000000000000000000000000 DUP2 MSTORE PUSH1 0x4 ADD PUSH2 0x29F SWAP1 PUSH2 0x975 JUMP JUMPDEST PUSH1 0x40 MLOAD DUP1 SWAP2 SUB SWAP1 REVERT JUMPDEST DUP1 PUSH0 PUSH0 DUP5 DUP2 MSTORE PUSH1 0x20 ADD SWAP1 DUP2 MSTORE PUSH1 0x20 ADD PUSH0 KECCAK256 PUSH0 ADD PUSH0 PUSH2 0x100 EXP DUP2 SLOAD DUP2 PUSH20 0xFFFFFFFFFFFFFFFFFFFFFFFFFFFFFFFFFFFFFFFF MUL NOT AND SWAP1 DUP4 PUSH20 0xFFFFFFFFFFFFFFFFFFFFFFFFFFFFFFFFFFFFFFFF AND MUL OR SWAP1 SSTORE POP PUSH32 0xAFD9F2E6DFDDE17D593B303BBBB47053D98A7CE79B03CA053D58AE499C7F55AE DUP3 CALLER DUP4 PUSH1 0x40 MLOAD PUSH2 0x32B SWAP4 SWAP3 SWAP2 SWAP1 PUSH2 0x993 JUMP JUMPDEST PUSH1 0x40 MLOAD DUP1 SWAP2 SUB SWAP1 LOG1 POP POP JUMP JUMPDEST PUSH1 0x1 PUSH0 DUP2 SLOAD DUP1 SWAP3 SWAP2 SWAP1 PUSH2 0x349 SWAP1 PUSH2 0x9F5 JUMP JUMPDEST SWAP2 SWAP1 POP SSTORE POP PUSH1 0x40 MLOAD DUP1 PUSH1 0x60 ADD PUSH1 0x40 MSTORE DUP1 CALLER PUSH20 0xFFFFFFFFFFFFFFFFFFFFFFFFFFFFFFFFFFFFFFFF AND DUP2 MSTORE PUSH1 0x20 ADD DUP3 DUP2 MSTORE PUSH1 0x20 ADD PUSH0 ISZERO ISZERO DUP2 MSTORE POP PUSH0 PUSH0 PUSH1 0x1 SLOAD DUP2 MSTORE PUSH1 0x20 ADD SWAP1 DUP2 MSTORE PUSH1 0x20 ADD PUSH0 KECCAK256 PUSH0 DUP3 ADD MLOAD DUP2 PUSH0 ADD PUSH0 PUSH2 0x100 EXP DUP2 SLOAD DUP2 PUSH20 0xFFFFFFFFFFFFFFFFFFFFFFFFFFFFFFFFFFFFFFFF MUL NOT AND SWAP1 DUP4 PUSH20 0xFFFFFFFFFFFFFFFFFFFFFFFFFFFFFFFFFFFFFFFF AND MUL OR SWAP1 SSTORE POP PUSH1 0x20 DUP3 ADD MLOAD DUP2 PUSH1 0x1 ADD SWAP1 DUP2 PUSH2 0x3EC SWAP2 SWAP1 PUSH2 0xC39 JUMP JUMPDEST POP PUSH1 0x40 DUP3 ADD MLOAD DUP2 PUSH1 0x2 ADD PUSH0 PUSH2 0x100 EXP DUP2 SLOAD DUP2 PUSH1 0xFF MUL NOT AND SWAP1 DUP4 ISZERO ISZERO MUL OR SWAP1 SSTORE POP SWAP1 POP POP PUSH32 0xFFAA94BBDB06CE69A1CD16A5A05500D4475F2B769B7DA620BE594121265017F9 PUSH1 0x1 SLOAD CALLER DUP4 PUSH1 0x40 MLOAD PUSH2 0x444 SWAP4 SWAP3 SWAP2 SWAP1 PUSH2 0xD08 JUMP JUMPDEST PUSH1 0x40 MLOAD DUP1 SWAP2 SUB SWAP1 LOG1 POP JUMP JUMPDEST PUSH0 PUSH1 0x20 MSTORE DUP1 PUSH0 MSTORE PUSH1 0x40 PUSH0 KECCAK256 PUSH0 SWAP2 POP SWAP1 POP DUP1 PUSH0 ADD PUSH0 SWAP1 SLOAD SWAP1 PUSH2 0x100 EXP SWAP1 DIV PUSH20 0xFFFFFFFFFFFFFFFFFFFFFFFFFFFFFFFFFFFFFFFF AND SWAP1 DUP1 PUSH1 0x1 ADD DUP1 SLOAD PUSH2 0x492 SWAP1 PUSH2 0xA69 JUMP JUMPDEST DUP1 PUSH1 0x1F ADD PUSH1 0x20 DUP1 SWAP2 DIV MUL PUSH1 0x20 ADD PUSH1 0x40 MLOAD SWAP1 DUP2 ADD PUSH1 0x40 MSTORE DUP1 SWAP3 SWAP2 SWAP1 DUP2 DUP2 MSTORE PUSH1 0x20 ADD DUP3 DUP1 SLOAD PUSH2 0x4BE SWAP1 PUSH2 0xA69 JUMP JUMPDEST DUP1 ISZERO PUSH2 0x509 JUMPI DUP1 PUSH1 0x1F LT PUSH2 0x4E0 JUMPI PUSH2 0x100 DUP1 DUP4 SLOAD DIV MUL DUP4 MSTORE SWAP2 PUSH1 0x20 ADD SWAP2 PUSH2 0x509 JUMP JUMPDEST DUP3 ADD SWAP2 SWAP1 PUSH0 MSTORE PUSH1 0x20 PUSH0 KECCAK256 SWAP1 JUMPDEST DUP2 SLOAD DUP2 MSTORE SWAP1 PUSH1 0x1 ADD SWAP1 PUSH1 0x20 ADD DUP1 DUP4 GT PUSH2 0x4EC JUMPI DUP3 SWAP1 SUB PUSH1 0x1F AND DUP3 ADD SWAP2 JUMPDEST POP POP POP POP POP SWAP1 DUP1 PUSH1 0x2 ADD PUSH0 SWAP1 SLOAD SWAP1 PUSH2 0x100 EXP SWAP1 DIV PUSH1 0xFF AND SWAP1 POP DUP4 JUMP JUMPDEST PUSH0 DUP2 SWAP1 POP SWAP2 SWAP1 POP JUMP JUMPDEST PUSH2 0x537 DUP2 PUSH2 0x525 JUMP JUMPDEST DUP3 MSTORE POP POP JUMP JUMPDEST PUSH0 PUSH1 0x20 DUP3 ADD SWAP1 POP PUSH2 0x550 PUSH0 DUP4 ADD DUP5 PUSH2 0x52E JUMP JUMPDEST SWAP3 SWAP2 POP POP JUMP JUMPDEST PUSH0 PUSH1 0x40 MLOAD SWAP1 POP SWAP1 JUMP JUMPDEST PUSH0 PUSH0 REVERT JUMPDEST PUSH0 PUSH0 REVERT JUMPDEST PUSH2 0x570 DUP2 PUSH2 0x525 JUMP JUMPDEST DUP2 EQ PUSH2 0x57A JUMPI PUSH0 PUSH0 REVERT JUMPDEST POP JUMP JUMPDEST PUSH0 DUP2 CALLDATALOAD SWAP1 POP PUSH2 0x58B DUP2 PUSH2 0x567 JUMP JUMPDEST SWAP3 SWAP2 POP POP JUMP JUMPDEST PUSH0 PUSH1 0x20 DUP3 DUP5 SUB SLT ISZERO PUSH2 0x5A6 JUMPI PUSH2 0x5A5 PUSH2 0x55F JUMP JUMPDEST JUMPDEST PUSH0 PUSH2 0x5B3 DUP5 DUP3 DUP6 ADD PUSH2 0x57D JUMP JUMPDEST SWAP2 POP POP SWAP3 SWAP2 POP POP JUMP JUMPDEST PUSH0 PUSH20 0xFFFFFFFFFFFFFFFFFFFFFFFFFFFFFFFFFFFFFFFF DUP3 AND SWAP1 POP SWAP2 SWAP1 POP JUMP JUMPDEST PUSH0 PUSH2 0x5E5 DUP3 PUSH2 0x5BC JUMP JUMPDEST SWAP1 POP SWAP2 SWAP1 POP JUMP JUMPDEST PUSH2 0x5F5 DUP2 PUSH2 0x5DB JUMP JUMPDEST DUP2 EQ PUSH2 0x5FF JUMPI PUSH0 PUSH0 REVERT JUMPDEST POP JUMP JUMPDEST PUSH0 DUP2 CALLDATALOAD SWAP1 POP PUSH2 0x610 DUP2 PUSH2 0x5EC JUMP JUMPDEST SWAP3 SWAP2 POP POP JUMP JUMPDEST PUSH0 PUSH0 PUSH1 0x40 DUP4 DUP6 SUB SLT ISZERO PUSH2 0x62C JUMPI PUSH2 0x62B PUSH2 0x55F JUMP JUMPDEST JUMPDEST PUSH0 PUSH2 0x639 DUP6 DUP3 DUP7 ADD PUSH2 0x57D JUMP JUMPDEST SWAP3 POP POP PUSH1 0x20 PUSH2 0x64A DUP6 DUP3 DUP7 ADD PUSH2 0x602 JUMP JUMPDEST SWAP2 POP POP SWAP3 POP SWAP3 SWAP1 POP JUMP JUMPDEST PUSH0 PUSH0 REVERT JUMPDEST PUSH0 PUSH0 REVERT JUMPDEST PUSH0 PUSH1 0x1F NOT PUSH1 0x1F DUP4 ADD AND SWAP1 POP SWAP2 SWAP1 POP JUMP JUMPDEST PUSH32 0x4E487B7100000000000000000000000000000000000000000000000000000000 PUSH0 MSTORE PUSH1 0x41 PUSH1 0x4 MSTORE PUSH1 0x24 PUSH0 REVERT JUMPDEST PUSH2 0x6A2 DUP3 PUSH2 0x65C JUMP JUMPDEST DUP2 ADD DUP2 DUP2 LT PUSH8 0xFFFFFFFFFFFFFFFF DUP3 GT OR ISZERO PUSH2 0x6C1 JUMPI PUSH2 0x6C0 PUSH2 0x66C JUMP JUMPDEST JUMPDEST DUP1 PUSH1 0x40 MSTORE POP POP POP JUMP JUMPDEST PUSH0 PUSH2 0x6D3 PUSH2 0x556 JUMP JUMPDEST SWAP1 POP PUSH2 0x6DF DUP3 DUP3 PUSH2 0x699 JUMP JUMPDEST SWAP2 SWAP1 POP JUMP JUMPDEST PUSH0 PUSH8 0xFFFFFFFFFFFFFFFF DUP3 GT ISZERO PUSH2 0x6FE JUMPI PUSH2 0x6FD PUSH2 0x66C JUMP JUMPDEST JUMPDEST PUSH2 0x707 DUP3 PUSH2 0x65C JUMP JUMPDEST SWAP1 POP PUSH1 0x20 DUP2 ADD SWAP1 POP SWAP2 SWAP1 POP JUMP JUMPDEST DUP3 DUP2 DUP4 CALLDATACOPY PUSH0 DUP4 DUP4 ADD MSTORE POP POP POP JUMP JUMPDEST PUSH0 PUSH2 0x734 PUSH2 0x72F DUP5 PUSH2 0x6E4 JUMP JUMPDEST PUSH2 0x6CA JUMP JUMPDEST SWAP1 POP DUP3 DUP2 MSTORE PUSH1 0x20 DUP2 ADD DUP5 DUP5 DUP5 ADD GT ISZERO PUSH2 0x750 JUMPI PUSH2 0x74F PUSH2 0x658 JUMP JUMPDEST JUMPDEST PUSH2 0x75B DUP5 DUP3 DUP6 PUSH2 0x714 JUMP JUMPDEST POP SWAP4 SWAP3 POP POP POP JUMP JUMPDEST PUSH0 DUP3 PUSH1 0x1F DUP4 ADD SLT PUSH2 0x777 JUMPI PUSH2 0x776 PUSH2 0x654 JUMP JUMPDEST JUMPDEST DUP2 CALLDATALOAD PUSH2 0x787 DUP5 DUP3 PUSH1 0x20 DUP7 ADD PUSH2 0x722 JUMP JUMPDEST SWAP2 POP POP SWAP3 SWAP2 POP POP JUMP JUMPDEST PUSH0 PUSH1 0x20 DUP3 DUP5 SUB SLT ISZERO PUSH2 0x7A5 JUMPI PUSH2 0x7A4 PUSH2 0x55F JUMP JUMPDEST JUMPDEST PUSH0 DUP3 ADD CALLDATALOAD PUSH8 0xFFFFFFFFFFFFFFFF DUP2 GT ISZERO PUSH2 0x7C2 JUMPI PUSH2 0x7C1 PUSH2 0x563 JUMP JUMPDEST JUMPDEST PUSH2 0x7CE DUP5 DUP3 DUP6 ADD PUSH2 0x763 JUMP JUMPDEST SWAP2 POP POP SWAP3 SWAP2 POP POP JUMP JUMPDEST PUSH2 0x7E0 DUP2 PUSH2 0x5DB JUMP JUMPDEST DUP3 MSTORE POP POP JUMP JUMPDEST PUSH0 DUP2 MLOAD SWAP1 POP SWAP2 SWAP1 POP JUMP JUMPDEST PUSH0 DUP3 DUP3 MSTORE PUSH1 0x20 DUP3 ADD SWAP1 POP SWAP3 SWAP2 POP POP JUMP JUMPDEST DUP3 DUP2 DUP4 MCOPY PUSH0 DUP4 DUP4 ADD MSTORE POP POP POP JUMP JUMPDEST PUSH0 PUSH2 0x818 DUP3 PUSH2 0x7E6 JUMP JUMPDEST PUSH2 0x822 DUP2 DUP6 PUSH2 0x7F0 JUMP JUMPDEST SWAP4 POP PUSH2 0x832 DUP2 DUP6 PUSH1 0x20 DUP7 ADD PUSH2 0x800 JUMP JUMPDEST PUSH2 0x83B DUP2 PUSH2 0x65C JUMP JUMPDEST DUP5 ADD SWAP2 POP POP SWAP3 SWAP2 POP POP JUMP JUMPDEST PUSH0 DUP2 ISZERO ISZERO SWAP1 POP SWAP2 SWAP1 POP JUMP JUMPDEST PUSH2 0x85A DUP2 PUSH2 0x846 JUMP JUMPDEST DUP3 MSTORE POP POP JUMP JUMPDEST PUSH0 PUSH1 0x60 DUP3 ADD SWAP1 POP PUSH2 0x873 PUSH0 DUP4 ADD DUP7 PUSH2 0x7D7 JUMP JUMPDEST DUP2 DUP2 SUB PUSH1 0x20 DUP4 ADD MSTORE PUSH2 0x885 DUP2 DUP6 PUSH2 0x80E JUMP JUMPDEST SWAP1 POP PUSH2 0x894 PUSH1 0x40 DUP4 ADD DUP5 PUSH2 0x851 JUMP JUMPDEST SWAP5 SWAP4 POP POP POP POP JUMP JUMPDEST PUSH32 0x4E6F7420617574686F72697A6564000000000000000000000000000000000000 PUSH0 DUP3 ADD MSTORE POP JUMP JUMPDEST PUSH0 PUSH2 0x8D0 PUSH1 0xE DUP4 PUSH2 0x7F0 JUMP JUMPDEST SWAP2 POP PUSH2 0x8DB DUP3 PUSH2 0x89C JUMP JUMPDEST PUSH1 0x20 DUP3 ADD SWAP1 POP SWAP2 SWAP1 POP JUMP JUMPDEST PUSH0 PUSH1 0x20 DUP3 ADD SWAP1 POP DUP2 DUP2 SUB PUSH0 DUP4 ADD MSTORE PUSH2 0x8FD DUP2 PUSH2 0x8C4 JUMP JUMPDEST SWAP1 POP SWAP2 SWAP1 POP JUMP JUMPDEST PUSH0 PUSH1 0x40 DUP3 ADD SWAP1 POP PUSH2 0x917 PUSH0 DUP4 ADD DUP6 PUSH2 0x52E JUMP JUMPDEST PUSH2 0x924 PUSH1 0x20 DUP4 ADD DUP5 PUSH2 0x7D7 JUMP JUMPDEST SWAP4 SWAP3 POP POP POP JUMP JUMPDEST PUSH32 0x4E6F7420746865206F776E657200000000000000000000000000000000000000 PUSH0 DUP3 ADD MSTORE POP JUMP JUMPDEST PUSH0 PUSH2 0x95F PUSH1 0xD DUP4 PUSH2 0x7F0 JUMP JUMPDEST SWAP2 POP PUSH2 0x96A DUP3 PUSH2 0x92B JUMP JUMPDEST PUSH1 0x20 DUP3 ADD SWAP1 POP SWAP2 SWAP1 POP JUMP JUMPDEST PUSH0 PUSH1 0x20 DUP3 ADD SWAP1 POP DUP2 DUP2 SUB PUSH0 DUP4 ADD MSTORE PUSH2 0x98C DUP2 PUSH2 0x953 JUMP JUMPDEST SWAP1 POP SWAP2 SWAP1 POP JUMP JUMPDEST PUSH0 PUSH1 0x60 DUP3 ADD SWAP1 POP PUSH2 0x9A6 PUSH0 DUP4 ADD DUP7 PUSH2 0x52E JUMP JUMPDEST PUSH2 0x9B3 PUSH1 0x20 DUP4 ADD DUP6 PUSH2 0x7D7 JUMP JUMPDEST PUSH2 0x9C0 PUSH1 0x40 DUP4 ADD DUP5 PUSH2 0x7D7 JUMP JUMPDEST SWAP5 SWAP4 POP POP POP POP JUMP JUMPDEST PUSH32 0x4E487B7100000000000000000000000000000000000000000000000000000000 PUSH0 MSTORE PUSH1 0x11 PUSH1 0x4 MSTORE PUSH1 0x24 PUSH0 REVERT JUMPDEST PUSH0 PUSH2 0x9FF DUP3 PUSH2 0x525 JUMP JUMPDEST SWAP2 POP PUSH32 0xFFFFFFFFFFFFFFFFFFFFFFFFFFFFFFFFFFFFFFFFFFFFFFFFFFFFFFFFFFFFFFFF DUP3 SUB PUSH2 0xA31 JUMPI PUSH2 0xA30 PUSH2 0x9C8 JUMP JUMPDEST JUMPDEST PUSH1 0x1 DUP3 ADD SWAP1 POP SWAP2 SWAP1 POP JUMP JUMPDEST PUSH32 0x4E487B7100000000000000000000000000000000000000000000000000000000 PUSH0 MSTORE PUSH1 0x22 PUSH1 0x4 MSTORE PUSH1 0x24 PUSH0 REVERT JUMPDEST PUSH0 PUSH1 0x2 DUP3 DIV SWAP1 POP PUSH1 0x1 DUP3 AND DUP1 PUSH2 0xA80 JUMPI PUSH1 0x7F DUP3 AND SWAP2 POP JUMPDEST PUSH1 0x20 DUP3 LT DUP2 SUB PUSH2 0xA93 JUMPI PUSH2 0xA92 PUSH2 0xA3C JUMP JUMPDEST JUMPDEST POP SWAP2 SWAP1 POP JUMP JUMPDEST PUSH0 DUP2 SWAP1 POP DUP2 PUSH0 MSTORE PUSH1 0x20 PUSH0 KECCAK256 SWAP1 POP SWAP2 SWAP1 POP JUMP JUMPDEST PUSH0 PUSH1 0x20 PUSH1 0x1F DUP4 ADD DIV SWAP1 POP SWAP2 SWAP1 POP JUMP JUMPDEST PUSH0 DUP3 DUP3 SHL SWAP1 POP SWAP3 SWAP2 POP POP JUMP JUMPDEST PUSH0 PUSH1 0x8 DUP4 MUL PUSH2 0xAF5 PUSH32 0xFFFFFFFFFFFFFFFFFFFFFFFFFFFFFFFFFFFFFFFFFFFFFFFFFFFFFFFFFFFFFFFF DUP3 PUSH2 0xABA JUMP JUMPDEST PUSH2 0xAFF DUP7 DUP4 PUSH2 0xABA JUMP JUMPDEST SWAP6 POP DUP1 NOT DUP5 AND SWAP4 POP DUP1 DUP7 AND DUP5 OR SWAP3 POP POP POP SWAP4 SWAP3 POP POP POP JUMP JUMPDEST PUSH0 DUP2 SWAP1 POP SWAP2 SWAP1 POP JUMP JUMPDEST PUSH0 PUSH2 0xB3A PUSH2 0xB35 PUSH2 0xB30 DUP5 PUSH2 0x525 JUMP JUMPDEST PUSH2 0xB17 JUMP JUMPDEST PUSH2 0x525 JUMP JUMPDEST SWAP1 POP SWAP2 SWAP1 POP JUMP JUMPDEST PUSH0 DUP2 SWAP1 POP SWAP2 SWAP1 POP JUMP JUMPDEST PUSH2 0xB53 DUP4 PUSH2 0xB20 JUMP JUMPDEST PUSH2 0xB67 PUSH2 0xB5F DUP3 PUSH2 0xB41 JUMP JUMPDEST DUP5 DUP5 SLOAD PUSH2 0xAC6 JUMP JUMPDEST DUP3 SSTORE POP POP POP POP JUMP JUMPDEST PUSH0 PUSH0 SWAP1 POP SWAP1 JUMP JUMPDEST PUSH2 0xB7E PUSH2 0xB6F JUMP JUMPDEST PUSH2 0xB89 DUP2 DUP5 DUP5 PUSH2 0xB4A JUMP JUMPDEST POP POP POP JUMP JUMPDEST JUMPDEST DUP2 DUP2 LT ISZERO PUSH2 0xBAC JUMPI PUSH2 0xBA1 PUSH0 DUP3 PUSH2 0xB76 JUMP JUMPDEST PUSH1 0x1 DUP2 ADD SWAP1 POP PUSH2 0xB8F JUMP JUMPDEST POP POP JUMP JUMPDEST PUSH1 0x1F DUP3 GT ISZERO PUSH2 0xBF1 JUMPI PUSH2 0xBC2 DUP2 PUSH2 0xA99 JUMP JUMPDEST PUSH2 0xBCB DUP5 PUSH2 0xAAB JUMP JUMPDEST DUP2 ADD PUSH1 0x20 DUP6 LT ISZERO PUSH2 0xBDA JUMPI DUP2 SWAP1 POP JUMPDEST PUSH2 0xBEE PUSH2 0xBE6 DUP6 PUSH2 0xAAB JUMP JUMPDEST DUP4 ADD DUP3 PUSH2 0xB8E JUMP JUMPDEST POP POP JUMPDEST POP POP POP JUMP JUMPDEST PUSH0 DUP3 DUP3 SHR SWAP1 POP SWAP3 SWAP2 POP POP JUMP JUMPDEST PUSH0 PUSH2 0xC11 PUSH0 NOT DUP5 PUSH1 0x8 MUL PUSH2 0xBF6 JUMP JUMPDEST NOT DUP1 DUP4 AND SWAP2 POP POP SWAP3 SWAP2 POP POP JUMP JUMPDEST PUSH0 PUSH2 0xC29 DUP4 DUP4 PUSH2 0xC02 JUMP JUMPDEST SWAP2 POP DUP3 PUSH1 0x2 MUL DUP3 OR SWAP1 POP SWAP3 SWAP2 POP POP JUMP JUMPDEST PUSH2 0xC42 DUP3 PUSH2 0x7E6 JUMP JUMPDEST PUSH8 0xFFFFFFFFFFFFFFFF DUP2 GT ISZERO PUSH2 0xC5B JUMPI PUSH2 0xC5A PUSH2 0x66C JUMP JUMPDEST JUMPDEST PUSH2 0xC65 DUP3 SLOAD PUSH2 0xA69 JUMP JUMPDEST PUSH2 0xC70 DUP3 DUP3 DUP6 PUSH2 0xBB0 JUMP JUMPDEST PUSH0 PUSH1 0x20 SWAP1 POP PUSH1 0x1F DUP4 GT PUSH1 0x1 DUP2 EQ PUSH2 0xCA1 JUMPI PUSH0 DUP5 ISZERO PUSH2 0xC8F JUMPI DUP3 DUP8 ADD MLOAD SWAP1 POP JUMPDEST PUSH2 0xC99 DUP6 DUP3 PUSH2 0xC1E JUMP JUMPDEST DUP7 SSTORE POP PUSH2 0xD00 JUMP JUMPDEST PUSH1 0x1F NOT DUP5 AND PUSH2 0xCAF DUP7 PUSH2 0xA99 JUMP JUMPDEST PUSH0 JUMPDEST DUP3 DUP2 LT ISZERO PUSH2 0xCD6 JUMPI DUP5 DUP10 ADD MLOAD DUP3 SSTORE PUSH1 0x1 DUP3 ADD SWAP2 POP PUSH1 0x20 DUP6 ADD SWAP5 POP PUSH1 0x20 DUP2 ADD SWAP1 POP PUSH2 0xCB1 JUMP JUMPDEST DUP7 DUP4 LT ISZERO PUSH2 0xCF3 JUMPI DUP5 DUP10 ADD MLOAD PUSH2 0xCEF PUSH1 0x1F DUP10 AND DUP3 PUSH2 0xC02 JUMP JUMPDEST DUP4 SSTORE POP JUMPDEST PUSH1 0x1 PUSH1 0x2 DUP9 MUL ADD DUP9 SSTORE POP POP POP JUMPDEST POP POP POP POP POP POP JUMP JUMPDEST PUSH0 PUSH1 0x60 DUP3 ADD SWAP1 POP PUSH2 0xD1B PUSH0 DUP4 ADD DUP7 PUSH2 0x52E JUMP JUMPDEST PUSH2 0xD28 PUSH1 0x20 DUP4 ADD DUP6 PUSH2 0x7D7 JUMP JUMPDEST DUP2 DUP2 SUB PUSH1 0x40 DUP4 ADD MSTORE PUSH2 0xD3A DUP2 DUP5 PUSH2 0x80E JUMP JUMPDEST SWAP1 POP SWAP5 SWAP4 POP POP POP POP JUMP INVALID LOG2 PUSH5 0x6970667358 0x22 SLT KECCAK256 PUSH13 0xC437E75486626CC8A52F51A208 0xBA 0xC9 DUP2 MULMOD DUP7 LOG0 DIV 0xA6 CHAINID MULMOD ORIGIN COINBASE PUSH4 0x70C287A5 BLOCKHASH PUSH5 0x736F6C6343 STOP ADDMOD SHR STOP CALLER "
				},
				"gasEstimates": {
					"creation": {
						"codeDepositCost": "690000",
						"executionCost": "5732",
						"totalCost": "695732"
					},
					"external": {
						"documentCounter()": "2403",
						"documents(uint256)": "infinite",
						"transferDoc(uint256,address)": "infinite",
						"uploadDocument(string)": "infinite",
						"verifyDocument(uint256)": "infinite"
					}
				},
				"methodIdentifiers": {
					"documentCounter()": "58f313bb",
					"documents(uint256)": "c2ed2b05",
					"transferDoc(uint256,address)": "88eeeaa6",
					"uploadDocument(string)": "b7f5576d",
					"verifyDocument(uint256)": "6dda61d9"
				}
			},
			"storageLayout": {
				"storage": [
					{
						"astId": 13,
						"contract": "contracts/mletr.sol:MLETR",
						"label": "documents",
						"offset": 0,
						"slot": "0",
						"type": "t_mapping(t_uint256,t_struct(Document)8_storage)"
					},
					{
						"astId": 15,
						"contract": "contracts/mletr.sol:MLETR",
						"label": "documentCounter",
						"offset": 0,
						"slot": "1",
						"type": "t_uint256"
					}
				],
				"types": {
					"t_address": {
						"encoding": "inplace",
						"label": "address",
						"numberOfBytes": "20"
					},
					"t_bool": {
						"encoding": "inplace",
						"label": "bool",
						"numberOfBytes": "1"
					},
					"t_mapping(t_uint256,t_struct(Document)8_storage)": {
						"encoding": "mapping",
						"key": "t_uint256",
						"label": "mapping(uint256 => struct MLETR.Document)",
						"numberOfBytes": "32",
						"value": "t_struct(Document)8_storage"
					},
					"t_string_storage": {
						"encoding": "bytes",
						"label": "string",
						"numberOfBytes": "32"
					},
					"t_struct(Document)8_storage": {
						"encoding": "inplace",
						"label": "struct MLETR.Document",
						"members": [
							{
								"astId": 3,
								"contract": "contracts/mletr.sol:MLETR",
								"label": "owner",
								"offset": 0,
								"slot": "0",
								"type": "t_address"
							},
							{
								"astId": 5,
								"contract": "contracts/mletr.sol:MLETR",
								"label": "hash",
								"offset": 0,
								"slot": "1",
								"type": "t_string_storage"
							},
							{
								"astId": 7,
								"contract": "contracts/mletr.sol:MLETR",
								"label": "verified",
								"offset": 0,
								"slot": "2",
								"type": "t_bool"
							}
						],
						"numberOfBytes": "96"
					},
					"t_uint256": {
						"encoding": "inplace",
						"label": "uint256",
						"numberOfBytes": "32"
					}
				}
			},
			"userdoc": {
				"kind": "user",
				"methods": {},
				"version": 1
			}
		}
	}
}